:10000000020003758163120126E582600302006F1E
:10001000780079007A007B007C007D00EC4D601C4C
:1000200088828983E493A3A882A9838A828B83F040
:10003000A3AA82AB831CBCFFE31D80E07582007520
:1000400083007C007D00EC4D600AE4F0A31CBCFF43
:10005000F51D80F27582007583007C007D00EC4DFB
:10006000600AE4F0A31CBCFFF51D80F212007412BC
:10007000042980FE7524002200000000000000001A
:10009000000000020196436F6D6D616E643A202589
:1000A00073000D0A4A44592D343020746573740D61
:1000B0000A0041542B44564944323338350D0A0066
:1000C00041542B5645520D0A0041542B4241554490
:1000D0000D0A0041542B524649440D0A0041542B4D
:1000E000445649440D0A0041542B5246430D0A0020
:1000F00041542B504F57450D0A0041542B434C534C
:10010000530D0A006D6F746F72206F6E0D0A006DD3
:100110006F746F72206F66660D0A003C4E4F20466A
:100120004C4F41543E0075A7007597DE7597AD752D
:10013000FF8075EF0675A71075C12075A70075A91A
:100140000075A900E5A930E7FB75A90375A903E5CA
:10015000A930E7FB43A41143A60175E10175E20054
:1001600075E341759810758DE6858D8B53890F4326
:100170008920D28ED29975A71075C0007522D875C6
:1001800023DC75D4FF75D5FF43F308D2C2D2AF7517
:10019000A70075820022C0E0C002C003C004C005F1
:1001A000C0D075D00075A710C2C7AA24BA000280BB
:1001B00005BA0132800FD29775D2A075D315752478
:1001C000010525802CC297AA22AB23E4FCFD74A074
:1001D000C39AFA74159BFBE49CFCE49DFD8AD28BC8
:1001E000D3752402800BC2978522D28523D3752430
:1001F00000D0D0D005D004D003D002D0E032AA8203
:10020000438E407592B87593FF859294859395754A
:1002100091047B00C3EB9A500BE59130E7FB5391BF
:100220007F0B80F075910022AA82AB837C007D0059
:10023000C3EC9AED9B502B7E00BE0400501D7582CE
:10024000FAC002C003C004C005C0061201FED006F9
:10025000D005D004D003D0020E80DE0CBC00D10D3E
:1002600080CE22AA82AB83ACF0FD75A72075930CDB
:1002700075C8107594008A468B478C488D4990A2AA
:100280000075F04A7404120736AA82AB83ACF0FD05
:10029000754618E4F547F548F5498A828B838CF05A
:1002A000ED120736AA82AB83ACF0FDE4C39AFAE400
:1002B0009BFB74019CE49D8A958B96D2C943944024
:1002C00075A70022AA8275A72010C90280FB8A9216
:1002D00075A70022AA82AB83ACF08A828B838CF054
:1002E00012071AFD60188D82C002C003C0041202FA
:1002F000C4D004D003D0020ABA00DF0B80DC227520
:10030000A72010C80280FB53C83F85928275A700C2
:100310002275A7207A007B0020C82675A700758269
:1003200014C002C0031201FED003D00275A7200A38
:10033000BA00010BBAA8E1BB61DE75A70075820A9D
:1003400022C2C853C83F85928275A70022AA82ABF9
:1003500083ACF0C002C003C004120311AD82D0040C
:10036000D003D002BD0A0A8A828B838CF0E4020992
:10037000588A828B838CF0ED120958A3AA82AB8332
:1003800080D175A720A2C875A70022AA82AB837C62
:10039000007D00C3EC9AED9B50477E00BE040050E8
:1003A00039C002C003C004C005C006120382E43392
:1003B000D006D005D004D003D0026001227582FAA5
:1003C000C002C003C004C005C0061201FED006D0A2
:1003D00005D004D003D0020E80C20CBC00B50D8045
:1003E000B222AA82AB83ACF0C002C003C004C00238
:1003F000C003C0047496C0E07400C0E07480C0E024
:10040000120937E58124FAF581C2A0900005120295
:1004100028D004D003D0028A828B838CF01202D4BD
:1004200090000A120228D2A022754200754300757E
:10043000448075453FE4F53CF53DF5259001F41207
:10044000022874A2C0E07400C0E07480C0E0120909
:1004500037158115811581902580E4F5F01202632E
:100460009000B275F0801203E29000C075F0801227
:1004700003E29000C975F0801203E29000D375F09A
:10048000801203E29000DD75F0801203E29000E735
:1004900075F0801203E29000F075F0801203E29094
:1004A00000FA75F0801203E27522907523E8C29578
:1004B00012038240030206BE90004A75F040120308
:1004C0004D90004A75F040120AB3AE82AF83BE0E63
:1004D00005BF000280030205B3E4F532F533C3E53E
:1004E000329404E533648094805018E5322426F871
:1004F000E532244AF98706A6060532E4B532DF055F
:100500003380DB752A0090002675F04012083E7596
:100510003405E4F535C3E5349409E5356480948009
:10052000501AE53424FB242AF8E534244AF98706D6
:10053000A6060534E4B534DD053580D9752E009066
:10054000002A75F04012083E75360AE4F537C3E517
:1005500036940EE53764809480501AE53624F624EC
:100560002EF8E536244AF98706A6060536E4B536A0
:10057000DD053780D975320090002E75F0401208E5
:100580003E120987AE82AF83AAF0FBE4C0E0C0E070
:10059000747AC0E07444C0E08E828F838AF0EB12DC
:1005A000099485823E85833F85F040F541E58124AD
:1005B000FCF581E53C453D700302063AE4C0E0C02D
:1005C000E07480C0E0743FC0E0853E82853F838553
:1005D00040F0E54112097185824285834385F044EC
:1005E000F545E58124FCF581E4C0E0C0E07480C0FD
:1005F000E07440C0E08542828543838544F0E54550
:1006000012099485824285834385F044F545E5814E
:1006100024FCF581C042C043C044C045900000E4C2
:10062000F5F0744012097185824285834385F04458
:10063000F545E58124FCF5818010E53C453D700AD7
:10064000F542F54375448075453FC042C043C04400
:10065000C04590A00075F08C744712079BAE82AF26
:1006600083AAF0FBE58124FCF581E4C0E0C0E074DE
:1006700040C0E07441C0E08E828F838AF0EB1209A3
:1006800094AA82AB83ACF0FDE58124FCF581C00225
:10069000C003C004C00590000075F08074471209C3
:1006A00071AA82AB83ACF0FDE58124FCF5818A82DE
:1006B0008B838CF0ED12097C858222858323208335
:1006C00028E53C453D70223083FD753C01E4F53D55
:1006D0007404C0E07401C0E07480C0E012093715F2
:1006E0008115811581D2958028208325E53C453DE3
:1006F000601F3083FDE4F53CF53D740FC0E07401EC
:10070000C0E07480C0E0120937158115811581C2DF
:100710009590006412038B0204B020F71430F61495
:100720008883A88220F507E6A88375830022E280EB
:10073000F7E49322E022FB7A20E4FCFDFEFFE58251
:100740002582F582E58333F583E5F033F5F0EB336D
:10075000FB4017DAE98042E5822582F582E58333A2
:10076000F583E5F033F5F0EB33FBEC33FCED33FDD3
:10077000EE33FEEF33FFEC9546ED9547EE9548EFEF
:1007800095494013EC9546FCED9547FDEE9548FEE6
:10079000EF9549FF438201DABEEB22120B5DBC00EC
:1007A00003020AFCEF60FA30D502B2D1E583B4FF50
:1007B00003020B12E582B4FF03020B1225834007EC
:1007C0002482400B020AFC2483145003020B12F50E
:1007D00082EA8DF0A4A8F0EA8EF0A428F8E435F0BF
:1007E000F9EB8DF0A428E935F0F9E433CA8FF0A4D1
:1007F00029F9EA35F0FAEBF88EF0A429F9EA35F098
:10080000FAE433FBEC8DF0A429F9EA35F0FAE43B85
:10081000FBE88FF0A42AFAEB35F0FBE433CCFD8E35
:10082000F0A42AFAEB35F0FBE43CFCED8FF0A42BAE
:10083000FBEC35F0FC20E703120B2A020ADBAA824C
:10084000AB83ACF07D007E008A078B008C018F8229
:10085000888389F012071AF50A6035C374B9850ACE
:10086000F063F08095F04008E50A648094B0502071
:100870008F82888389F012071AF50A742DB50A024F
:10088000800E742BB50A0280070FBF00C10880BE1E
:100890008F02880389048F82888389F012071AFFE8
:1008A000BF2D03D38001C39200BF2D028003BF2B55
:1008B000050ABA00010B8A828B838CF012071AFF9B
:1008C000604BC3EF648094B0404374B98FF063F021
:1008D0008095F040388D468E4790000AC002C003D4
:1008E000C004C007120B8BAD82AE83D007D004D0FA
:1008F00003D002EF3395E0F8EF24D0FFE834FFF89F
:10090000EF2DFDE83EFE0ABA00AC0B80A9300009CD
:10091000C3E49DFAE49EFB80048D028E038A828BE1
:1009200083220211C885821885831985F01A8509EA
:100930001B900922020C31C008858108E50824FBC0
:10094000F51BE50824FBF8861808861908861A9016
:100950000922120C31D0082220F71030F6118883BA
:10096000A88220F507F6A88375830022F280F7F0AD
:1009700022A8811818C6B2E7C60211DD7F8E1212B6
:1009800038F58385F08222AC83AB827A00790074DB
:100990008E021266120B5D30D502B2D1BF0009BCC7
:1009A0000003020B1F020B12BC0003020AFCE583CA
:1009B000B4FF0BE582B4FF03020B1F020AFCE582C1
:1009C000B4FF03020B12C395835007247F400B0230
:1009D0000AFC2480145003020B12C0E0E4CCCBCA02
:1009E000F98D468E478F48EF54F0C4F5497583065C
:1009F0008549F0EB84F582E9C4F9EAC4FAEBC4FB5B
:100A0000EC540FC47803D6FC18EBD6FB18EAD6FAE0
:100A10008582F0EDA4A8F0FD8582F0EEA428FEE426
:100A200035F0F88582F0EFA428FFE435F0F8E99D71
:100A3000F9EA9EFAEB9FFBEC98FCAD46AE47AF4857
:100A400030E7101582E92DF9EA3EFAEB3FFBE43C72
:100A5000FC80EDC082D58398C3E933F9EA33FAEB21
:100A600033FBEC33FCC3E99DEA9EEB9FEC9400B3AF
:100A7000E413F9D002D0E0C44AFAD003D0E0C44B6A
:100A8000FBD004D0E0F5F0540FC44CFCD0821582AA
:100A900030F40FD3EC13FCEB13FBEA13FAE913F970
:100AA0000582E930E70A74012AFAE43BFBE43CFCE6
:100AB000020AF3AA82AB83ACF07D007E008A828BAF
:100AC000838CF012071AFFA3AA82AB83EF60070D95
:100AD000BD00EA0E80E78D828E8322B98003EA137F
:100AE000B34010EA2401FAE43BFBE43CFC50047CF4
:100AF000800582BC000EBB000BBA0008E4F5F0F5DF
:100B000083F58222A2D1E582138CF092F78B838A3F
:100B10008222E4F583F58275F080F4A2D11322E4F9
:100B2000F583F58275F0C0747F227804EC7011E5CE
:100B30008224F8500AF582E4C9CACBFCD8EF22EC33
:100B40007820058220E713D5820122C3E933F9EA30
:100B500033FAEB33FBEC33FCD8EA158222AA82ABE2
:100B600083A2F73392D16002D2F7F582ACF0E5812F
:100B700024F9F8E6FD08E6FE0886F008E6A2F73359
:100B800092D56002D2F7F583AFF022E5828546F078
:100B9000A4C582C0F08547F0A4D0F025F0C58385B8
:100BA00046F0A42583F58322AA8274B9C0E0740BB1
:100BB000C0E0C00AC00B8A82220511E4B51102050B
:100BC0001222AA8274302AFA24C6500A74072AFA1A
:100BD0003001034302208A82020BA8E582FAC45442
:100BE0000FF582C002120BC2D002740F5AF58202B6
:100BF0000BC2AA0CAB0DAC0EAD0FAE10751720EEEC
:100C00002EFEED235401FF4206EA2AFAEB33FBECF9
:100C100033FCED33FDC3EE95134008EEC39513FE90
:100C2000430201D517D98A0C8B0D8C0E8D0F8E10B7
:100C30002285820A85830BE4F511F512AA18AB19F7
:100C4000AC1A8A828B838CF012071AFD74012AF584
:100C500018E43BF5198C1AEDFA70030211C1BA259C
:100C60000280030211B9C205C206C207C208C20946
:100C7000C20AC20BC20CC202C203C20475130075C1
:100C800014007515FFAB18AC19AD1A8B828C838DCF
:100C9000F012071AFAA3AB82AC838B188C198D1A49
:100CA000BA25078A82120BA880928A06BE300040BD
:100CB0002E8A06EE24C6402774FFB51513E5147579
:100CC000F00AA4FEEA24D02EF51470BFD20680BB31
:100CD000E51575F00AA4FEEA24D02EF51580ACBA0D
:100CE0002E0A74FFB515A4751500809F8A06BE6193
:100CF00000400E8A06EE248540075302DFD20180B1
:100D000002C201BA20028075BA2303020D8CBA2AEE
:100D100003020D91BA2B02805FBA2D028055BA42B0
:100D200002805FBA4303020DD6BA4403020F11BA20
:100D30004503020F2BBA4603020F27BA4703020FDF
:100D40002FBA4903020F11BA4C02803BBA4E03027C
:100D50000F33BA4F03020F18BA5003020EAABA5348
:100D600003020DFABA5503020F1DBA5803020F22EF
:100D7000020F5DD205020C8BD207020C8BD2080247
:100D80000C8BD20A020C8BD20B020C8BD20C020CF5
:100D90008B74FFB51520300A0BE51B14F8881B86F1
:100DA00014020C8BE51B24FEF8881B8606088607B8
:100DB000188E14020C8B300A0BE51B14F8881B8666
:100DC00015020C8BE51B24FEF8881B860608860797
:100DD000188E15020C8B300A0AE51B14F8881B8646
:100DE00002800FE51B24FEF8881B86030886041882
:100DF0008B028A82120BA8020F62E51B24FDF88881
:100E00001B860308860408860518188B0C8C0D8D2C
:100E10000E8B828C838DF0120AB3AB82AC838B165F
:100E200074FFB5150385161520051DC3E516951429
:100E30005016E514C39516F514AB141514EB6008A1
:100E4000758220120BA880F1850C82850D83850E9A
:100E5000F012071AFBFA6029AB151515C3E464807C
:100E60008BF063F08095F050188A82120BA8AB0CBF
:100E7000AC0DAD0E0BBB00010C8B0C8C0D8D0E80E0
:100E8000C7200503020F62C3E51695144003020F45
:100E900062E514C39516F514AB141514EB70030238
:100EA0000F62758220120BA880EEE51B24FDF888E6
:100EB0001B860308860408860518188B0C8C0D8D7C
:100EC0000EE50EFB30E7047A438013EB54606004B8
:100ED0007A50800AEB30E6047A4980027A588A8296
:100EE000C002120BA875823A120BA8758230120B41
:100EF000A8758278120BA8D002BA4902800BBA50AA
:100F0000028006850D82120BDB850C82120BDB80C2
:100F100051D20975130A804A751308804575130A62
:100F20008040751310803BD2028037D2038033D2C9
:100F300004802FE51B24FDF8881B8603088604081F
:100F4000860518188B0C8C0D8D0E8B828C838DF082
:100F5000E511120958A3E51212095880058A821278
:100F60000BA820020620030330045AE51B24FCF8DA
:100F7000881B860308860408860508860618181844
:100F80008B0C8C0D8D0E8E0F750C1B750D01750E57
:100F900080850C1C850D1D850E1E7401251CFEE42C
:100FA000351DFFAB1E8E0C8F0D8B0E851C82851D93
:100FB00083851EF012071AFBFA7003020C3C8A822A
:100FC000120BA880CCE5137003020C3C7B63300A43
:100FD0002BE51B14F8881BE6FC3395E0FDFEFF8C27
:100FE0000C8D0D8E0E8F0F20095EAC0C7D007E00E7
:100FF0007F008C0C8D0D8E0E8F0F804C300B1FE5FB
:101000001B24FCF8881B86040886050886060886CB
:10101000071818188C0C8D0D8E0E8F0F802AE51B6B
:1010200024FEF8881B860408860518ED3395E0FE3B
:10103000FF8C0C8D0D8E0E8F0F20090CAC0CAD0D9E
:101040007E007F008E0E8F0F300C43E50C450D4562
:101050000E450F60397408B5130C758230C0031249
:101060000BA8D00380287410B51323758230C003F9
:10107000120BA8D00330010C758278C003120BA8A4
:10108000D003800A758258C003120BA8D003300920
:1010900025AC0CAD0DAE0EE50FFF30E717C3E49C99
:1010A000FCE49DFDE49EFEE49FFF8C0C8D0D8E0EF6
:1010B0008F0F8002C209751600D20D8B00751000CB
:1010C000C000120BF2D000200D0DE510C4FCE6FDAF
:1010D0004CF61888038002A6100516B20DE50C45E3
:1010E0000D450E450F70D68803E514700375140185
:1010F00020061A200517E51604FCC39514500E753A
:101100008220C003120BA8D003151480E930090E09
:1011100075822DC003120BA8D00315148024E51688
:10112000602030070E75822BC003120BA8D0031568
:1011300014800F30080C758220C003120BA8D00356
:10114000151420051EAC141514C3E5169C50273049
:1011500006047C3080027C208C82C003120BA8D055
:101160000380E2C3E51695145009E514C39516F5FE
:101170001480037514008B00AB161516EB6022B2B9
:101180000D200D0A08E6C4540FFB8B108007860360
:10119000740F5BF510851082C000120BC2D0008066
:1011A000D7200503020C3CAB141514EB7003020CA2
:1011B0003C758220120BA880EE8A82120BA8020CCA
:1011C0003C85118285128322AA82BA0A08109902EC
:1011D00080FB75990D10990280FB8A9922120B5D94
:1011E0007900E583B58202800D500312128AE583EF
:1011F000C395821212A4E5D0C465D020E117EA2D70
:10120000FAEB3EFBEC3FFC500974011212A4EC44D3
:1012100080FC020ADBC3EA9DFAEB9EFBEC9FFC50CC
:101220000FC3E499F9E49AFAE49BFBE49CFCB2D185
:10123000120B2A020ADB7F9E1212E730D103020A48
:10124000FCC3EF9582500974FFF5F0F583F5822217
:1012500079001212A489828A838BF0EC22FCABF015
:10126000AA83A982749EF582C2D1EC30E716D2D14E
:10127000E9F42401F9EAF43400FAEBF43400FBEC6D
:10128000F43400FC120B2A020ADBE582C583F582E6
:10129000A2D133A2D592D11392D5ECCFFCEBCEFBE9
:1012A000EACDFA226040F82582500274FFF582E808
:1012B00024F8501ECCCBCAF9E4CC24F85014CBCA85
:1012C000F9E4CB24F8500BCAF9E4CA24F8500379A6
:1012D000002224086010F8C3EC13FCEB13FBEA13A4
:1012E000FAE913F9D8F122AA82AB83A2F73392D19B
:1012F0006002D2F7F582ACF022000000000000008E
:00000001FF
