:1000000002000375816812010DE582600302006F32
:10001000780079007A007B007C007D00EC4D601C4C
:1000200088828983E493A3A882A9838A828B83F040
:10003000A3AA82AB831CBCFFE31D80E07582007520
:1000400083007C007D00EC4D600AE4F0A31CBCFF43
:10005000F51D80F27582007583007C007D00EC4DFB
:10006000600AE4F0A31CBCFFF51D80F212010C1223
:1000700004E180FE436F6D6D616E643A202573006C
:100080000D0A4A44592D343020746573740D0A00EA
:1000900041542B44564944323338350D0A004154FB
:1000A0002B5645520D0A0041542B424155440D0A2E
:1000B0000041542B524649440D0A0041542B4456EA
:1000C00049440D0A0041542B5246430D0A00415445
:1000D0002B504F57450D0A0041542B434C53530DA1
:1000E0000A0025302A642025302A642025302A641D
:1000F0002025642025642025642025640A002573BA
:10010000003C4E4F20464C4F41543E002275A70004
:100110007597DE7597AD75FF8075EF0675A710753D
:10012000C12075A70075A90075A900E5A930E7FBF6
:1001300075A90375A903E5A930E7FB43A41143A6FC
:100140000175E10175E20075E341759810758DE662
:10015000858D8B53890F438920D28ED29975820069
:100160002275A700C2EF75B28075BC2075B91E75E7
:10017000E80075DF3F75B300D2EF225389F0438961
:1001800001C28C22AA82438E407592B87593FF8576
:1001900092948593957591047B00C3EB9A500BE57F
:1001A0009130E7FB53917F0B80F075910022AA827A
:1001B000AB837C007D00C3EC9AED9B502B7E00BE90
:1001C0000400501D7582FAC002C003C004C005C0FF
:1001D00006120184D006D005D004D003D0020E80D0
:1001E000DE0CBC00D10D80CE22AA828511F005F074
:1001F0007401800225E0D5F0FBFB75A720BA000250
:10020000800ABA0102800FBA021E8014EBF4FA527F
:10021000F1EB42D48012EBF4FA52F2EB42D58008B3
:10022000EBF4FA52F3EB42CC75A70022C2EDD2EC0C
:1002300030EDFD85BD8285BE83228582BBC2EDD2B5
:10024000EC30EDFD85BD8285BE832212023A120894
:10025000F2AA82AB83ACF0FDC002C003C004C005AB
:1002600090000075F0A07440120962AA82AB83ACC2
:10027000F0FDE58124FCF581E4C0E074FCC0E0748D
:100280007FC0E07446C0E08A828B838CF0ED120A56
:10029000E9AA82AB83ACF0FDE58124FCF5818A827A
:1002A0008B838CF0ED2212023AAA82AB83C3EA94CC
:1002B000CCEB940C500990000075F080743F228ABA
:1002C000828B831208F2AA82AB83ACF0FDC002C01D
:1002D00003C004C00590000075F0A07440120962CC
:1002E000AA82AB83ACF0FDE58124FCF581E4C0E09B
:1002F00074FCC0E0747FC0E07446C0E08A828B83E7
:100300008CF0ED120AE9AA82AB83ACF0FDE5812402
:10031000FCF5818A828B838CF0ED22AA82AB83ACC0
:10032000F0FD75A72075930C75C8107594008A119F
:100330008B128C138D1490A20075F04A740412086D
:100340008DAA82AB83ACF0FD751118E4F512F5139C
:10035000F5148A828B838CF0ED12088DAA82AB8310
:10036000ACF0FDE4C39AFAE49BFB74019CE49D8A23
:10037000958B96D2C943944075A70022AA8275A78F
:100380002010C90280FB8A9275A70022AA82AB8343
:10039000ACF08A828B838CF0120871FD60188D821C
:1003A000C002C003C00412037CD004D003D0020AF0
:1003B000BA00DF0B80DC2275A72010C80280FB5337
:1003C000C83F85928275A7002275A7207A007B001E
:1003D00020C82675A700758214C002C003120184CC
:1003E000D003D00275A7200ABA00010BBAA8E1BB5E
:1003F00061DE75A70075820A22C2C853C83F859284
:100400008275A70022AA82AB83ACF0C002C003C0F1
:10041000041203C9AD82D004D003D002BD0A0A8AF7
:10042000828B838CF0E4020A3B8A828B838CF0ED12
:10043000120A3BA3AA82AB8380D175A720A2C875FC
:10044000A70022AA82AB837C007D00C3EC9AED9BBF
:1004500050477E00BE04005039C002C003C004C033
:1004600005C00612043AE433D006D005D004D00308
:10047000D0026001227582FAC002C003C004C00528
:10048000C006120184D006D005D004D003D0020EDD
:1004900080C20CBC00B50D80B222AA82AB83ACF046
:1004A000C002C003C004C002C003C0047474C0E032
:1004B0007400C0E07480C0E0120A1AE58124FAF5E5
:1004C00081C2A09000051201AED004D003D0028AF0
:1004D000828B838CF012038C90000A1201AED2A0A2
:1004E00022E4F538F5399001F41201AE7480C0E0D1
:1004F0007400C0E07480C0E0120A1A1581158115DD
:1005000081902580E4F5F012031B751102758202BB
:100510001201E97511027582011201E97511037565
:1005200082021201E97511017582021201E91201BC
:100530006190009075F08012049A90009E75F08092
:1005400012049A9000A775F08012049A9000B17579
:10055000F08012049A9000BB75F08012049A90000B
:10056000C575F08012049A9000CE75F08012049A3E
:100570009000D875F08012049A75821112024B8592
:10058000822285832385F024F52575820F12024B84
:1005900085822685832785F028F529758208120231
:1005A0004B85822A85832B85F02CF52D75820E12C2
:1005B000024B85822E85832F85F030F531C026C011
:1005C00027C028C02990000075F07A74441209628F
:1005D00085822685832785F028F529E58124FCF589
:1005E00081C02AC02BC02CC02D90000075F07A74F9
:1005F0004412096285822A85832B85F02CF52DE52E
:100600008124FCF581C02EC02FC030C03190000085
:1006100075F07A744412096285822E85832F85F0E5
:1006200030F531E58124FCF581208406753801E43C
:10063000F539746EC0E074DBC0E07436C0E0743F1E
:10064000C0E08522828523838524F0E525120932C6
:10065000AE82E58124FCF581EE6014753201E4F58B
:1006600033753401E4F535E4F536F5370207A67441
:100670006EC0E074DBC0E074B6C0E0743FC0E085DB
:1006800022828523838524F0E525120932AA82E59A
:100690008124FCF581EA6014753201E4F533E4F558
:1006A00034F535753601E4F5370207A67492C0E0DB
:1006B0007424C0E07409C0E07440C0E085228285E3
:1006C00023838524F0E525120932AA82E58124FCE2
:1006D000F581EA6012753201E4F533E4F534F5355D
:1006E000F536F5370207A6746EC0E074DBC0E0741F
:1006F00036C0E07440C0E08522828523838524F0E3
:10070000E525120932AA82E58124FCF581EA60140C
:10071000E4F532F533753401E4F535753601E4F569
:10072000370207A67449C0E07492C0E07464C0E068
:100730007440C0E08522828523838524F0E525125C
:100740000932AA82E58124FCF581EA6012E4F532DF
:10075000F533753401E4F535E4F536F53780477443
:1007600092C0E07424C0E07489C0E07440C0E085A9
:1007700022828523838524F0E525120932AA82E5A9
:100780008124FCF581EA6011E4F532F533F534F5A6
:1007900035753601E4F537800DE4F532F533F5347F
:1007A000F535F536F537852A82852B83852CF0E5DE
:1007B0002D1208FEAA82AB83852E82852F83853079
:1007C000F0E531C002C0031208FEAC82AD8385267D
:1007D000828527838528F0E529C004C0051208FE1C
:1007E000AE82AF83D005D004D003D002C036C0376C
:1007F000C034C035C032C033C038C039C002C003B5
:100800007404C0E0E4C0E0C004C0057404C0E0E4C7
:10081000C0E0C006C0077404C0E0E4C0E074E2C0F9
:10082000E07400C0E07480C0E0744FC0E07400C0A9
:10083000E07440C0E0120AA3E58124E6F58190004F
:100840004F75F04012038C744FC0E07400C0E07428
:1008500040C0E074FEC0E07400C0E07480C0E012EC
:100860000A1AE58124FAF581900014120443020566
:100870007920F71430F6148883A88220F507E6A8BB
:100880008375830022E280F7E49322E022FB7A2042
:10089000E4FCFDFEFFE5822582F582E58333F583E6
:1008A000E5F033F5F0EB33FB4017DAE98042E582FF
:1008B0002582F582E58333F583E5F033F5F0EB33FC
:1008C000FBEC33FCED33FDEE33FEEF33FFEC951123
:1008D000ED9512EE9513EF95144013EC9511FCED88
:1008E0009512FDEE9513FEEF9514FF438201DABEDB
:1008F000EB22E4AC83AB82FAF9748E020C11120C79
:100900001B700AE582458345F0700122E430D11264
:10091000F4700BE5F0F47006E58330E70122908077
:100920000022700AE5F07006E58320E70122907F3F
:10093000FF22FFA8811818120C94D2D133E6400789
:1009400030E70B7582002220E70675820122C2D1B2
:10095000120C76E97003F5822220D101B3E433F55D
:100960008222120D41BC0003020CE0EF60FA30D588
:1009700002B2D1E583B4FF03020CF6E582B4FF03B3
:10098000020CF6258340072482400B020CE02483EE
:10099000145003020CF6F582EA8DF0A4A8F0EA8E5A
:1009A000F0A428F8E435F0F9EB8DF0A428E935F04F
:1009B000F9E433CA8FF0A429F9EA35F0FAEBF88E9E
:1009C000F0A429F9EA35F0FAE433FBEC8DF0A42920
:1009D000F9EA35F0FAE43BFBE88FF0A42AFAEB35AC
:1009E000F0FBE433CCFD8EF0A42AFAEB35F0FBE407
:1009F0003CFCED8FF0A42BFBEC35F0FC20E7031260
:100A00000D0E020CBF02138F85824885834985F045
:100A10004A85104B900A05020DF8C008858108E54B
:100A20000824FBF54BE50824FBF8864808864908AE
:100A3000864A900A05120DF8D0082220F71030F6E9
:100A4000118883A88220F507F6A88375830022F217
:100A500080F7F022AA82AB09AC0AAD0B8B828C83A3
:100A60008DF0EA120A3B0509E4B50902050A228560
:100A7000820985830A85F00B850C48850D49850E12
:100A80004A850F4B900A54120DF8AA82AB83AC0929
:100A9000AD0AAE0B8C828D838EF0E4120A3B8A8203
:100AA0008B8322C008858108E50824F8F54BE5080A
:100AB00024FBF8860908860A08860BE50824F8F85E
:100AC000864808864908864A900A54120DF8AA8278
:100AD000AB83AC09AD0AAE0B8C828D838EF0E41231
:100AE0000A3B8A828B83D00822120D4130D502B294
:100AF000D1BF0009BC0003020D03020CF6BC0003C9
:100B0000020CE0E583B4FF0BE582B4FF03020D03A2
:100B1000020CE0E582B4FF03020CF6C39583500794
:100B2000247F400B020CE02480145003020CF6C01A
:100B3000E0E4CCCBCAF98D118E128F13EF54F0C4C0
:100B4000F5147583068514F0EB84F582E9C4F9EA9F
:100B5000C4FAEBC4FBEC540FC47803D6FC18EBD6F4
:100B6000FB18EAD6FA8582F0EDA4A8F0FD8582F0A4
:100B7000EEA428FEE435F0F88582F0EFA428FFE427
:100B800035F0F8E99DF9EA9EFAEB9FFBEC98FCAD95
:100B900011AE12AF1330E7101582E92DF9EA3EFAD3
:100BA000EB3FFBE43CFC80EDC082D58398C3E93386
:100BB000F9EA33FAEB33FBEC33FCC3E99DEA9EEB35
:100BC0009FEC9400B3E413F9D002D0E0C44AFAD009
:100BD00003D0E0C44BFBD004D0E0F5F0540FC44C7C
:100BE000FCD082158230F40FD3EC13FCEB13FBEA3C
:100BF00013FAE913F90582E930E70A74012AFAE4E5
:100C00003BFBE43CFC020CD7FCABF0AA83A982744A
:100C10009EC2D1F582120D0E020CBF1213A4C37432
:100C20009E9582403979001213B630D126E9F4241A
:100C300001F582EAF43400F583EBF43400F5F0ECCE
:100C4000F43400700AE582458345F0700122E430F7
:100C5000E70F22EC20E71489828A838BF02230D1BF
:100C60000AE4F582F583F5F074802274FFF582F5CD
:100C700083F5F0747F227901AA82E68F82B5821310
:100C800018E6B5F00E18E6B5830918E68A82B58233
:100C900002790022B4800FE5F0700AE5837006E562
:100CA0008270027F00EFB6801518B6001018B600EB
:100CB0000B18B6000608080876002208080822B9B2
:100CC0008003EA13B34010EA2401FAE43BFBE43C5E
:100CD000FC50047C800582BC000EBB000BBA0008EF
:100CE000E4F5F0F583F58222A2D1E582138CF0922F
:100CF000F78B838A8222E4F583F58275F080F4A273
:100D0000D11322E4F583F58275F0C0747F22780454
:100D1000EC7011E58224F8500AF582E4C9CACBFCD4
:100D2000D8EF22EC7820058220E713D5820122C378
:100D3000E933F9EA33FAEB33FBEC33FCD8EA1582FA
:100D400022AA82AB83A2F73392D16002D2F7F58256
:100D5000ACF0E58124F9F8E6FD08E6FE0886F00827
:100D6000E6A2F73392D56002D2F7F583AFF022AA5C
:100D7000827480C0E0740DC0E0C03AC03B8A822219
:100D80000541E4B54102054222AA8274302AFA24C0
:100D9000C6500A74072AFA3000034302208A8202EE
:100DA0000D6FE582FAC4540FF582C002120D89D08E
:100DB00002740F5AF582020D89AA3CAB3DAC3EADE0
:100DC0003FAE40754720EE2EFEED235401FF420654
:100DD000EA2AFAEB33FBEC33FCED33FDC3EE95432B
:100DE0004008EEC39543FE430201D547D98A3C8BA8
:100DF0003D8C3E8D3F8E402285823A85833BE4F5D3
:100E000041F542AA48AB49AC4A8A828B838CF012E6
:100E10000871FD74012AF548E43BF5498C4AEDFA66
:100E20007003021388BA25028003021380C204C231
:100E300005C206C207C208C209C20AC20BC201C269
:100E400002C2037543007544007545FFAB48AC49C9
:100E5000AD4A8B828C838DF0120871FAA3AB82AC01
:100E6000838B488C498D4ABA25078A82120D6F8080
:100E7000928A06BE3000402E8A06EE24C6402774B1
:100E8000FFB54513E54475F00AA4FEEA24D02EF51B
:100E90004470BFD20580BBE54575F00AA4FEEA2484
:100EA000D02EF54580ACBA2E0A74FFB545A4754521
:100EB00000809F8A06BE6100400E8A06EE248540AF
:100EC000075302DFD2008002C200BA20028075BA46
:100ED0002303020F53BA2A03020F58BA2B02805F72
:100EE000BA2D028055BA4202805FBA4303020F9DB9
:100EF000BA44030210D8BA45030210F2BA460302FC
:100F000010EEBA47030210F6BA49030210D8BA4CE1
:100F100002803BBA4E030210FABA4F030210DFBA46
:100F20005003021071BA5303020FC1BA55030210E5
:100F3000E4BA58030210E9021124D204020E52D27C
:100F400006020E52D207020E52D209020E52D20AE5
:100F5000020E52D20B020E5274FFB5452030090B1F
:100F6000E54B14F8884B8644020E52E54B24FEF8FC
:100F7000884B8606088607188E44020E5230090BED
:100F8000E54B14F8884B8645020E52E54B24FEF8DB
:100F9000884B8606088607188E45020E5230090ACD
:100FA000E54B14F8884B8602800FE54B24FEF88849
:100FB0004B8603088604188B028A82120D6F021179
:100FC00029E54B24FDF8884B86030886040886052E
:100FD00018188B3C8C3D8D3E8B828C838DF01213C8
:100FE000F9AB82AC838B4674FFB54503854645203B
:100FF000041DC3E54695445016E544C39546F544A3
:10100000AB441544EB6008758220120D6F80F185AA
:101010003C82853D83853EF0120871FBFA6029AB66
:10102000451545C3E464808BF063F08095F050185B
:101030008A82120D6FAB3CAC3DAD3E0BBB00010C88
:101040008B3C8C3D8D3E80C7200403021129C3E5F3
:101050004695444003021129E544C39546F544AB47
:10106000441544EB7003021129758220120D6F8024
:10107000EEE54B24FDF8884B8603088604088605B8
:1010800018188B3C8C3D8D3EE53EFB30E7047A43DF
:101090008013EB546060047A50800AEB30E6047AE7
:1010A0004980027A588A82C002120D6F75823A1204
:1010B0000D6F758230120D6F758278120D6FD00230
:1010C000BA4902800BBA50028006853D82120DA2F9
:1010D000853C82120DA28051D20875430A804A7560
:1010E0004308804575430A8040754310803BD20118
:1010F0008037D2028033D203802FE54B24FDF8885D
:101100004B860308860408860518188B3C8C3D8D99
:101110003E8B828C838DF0E541120A3BA3E542129F
:101120000A3B80058A82120D6F20010620020330DF
:10113000035AE54B24FCF8884B860308860408868E
:10114000050886061818188B3C8C3D8D3E8E3F7521
:101150003C01753D01753E80853C4C853D4D853E8D
:101160004E7401254CFEE4354DFFAB4E8E3C8F3D59
:101170008B3E854C82854D83854EF0120871FBFABB
:101180007003020E038A82120D6F80CCE543700358
:10119000020E037B6830092BE54B14F8884BE6FC04
:1011A0003395E0FDFEFF8C3C8D3D8E3E8F3F200849
:1011B0005EAC3C7D007E007F008C3C8D3D8E3E8F82
:1011C0003F804C300A1FE54B24FCF8884B8604080E
:1011D00086050886060886071818188C3C8D3D8EF3
:1011E0003E8F3F802AE54B24FEF8884B8604088614
:1011F0000518ED3395E0FEFF8C3C8D3D8E3E8F3F14
:1012000020080CAC3CAD3D7E007F008E3E8F3F3011
:101210000B43E53C453D453E453F60397408B543C9
:101220000C758230C003120D6FD00380287410B586
:101230004323758230C003120D6FD00330000C754C
:101240008278C003120D6FD003800A758258C003E4
:10125000120D6FD003300825AC3CAD3DAE3EE53FEE
:10126000FF30E717C3E49CFCE49DFDE49EFEE49F91
:10127000FF8C3C8D3D8E3E8F3F8002C2087546003C
:10128000D20C8B00754000C000120DB9D000200CAC
:101290000DE540C4FCE6FD4CF61888038002A6402C
:1012A0000546B20CE53C453D453E453F70D68803BA
:1012B000E544700375440120051A200417E546042F
:1012C000FCC39544500E758220C003120D6FD003ED
:1012D000154480E930080E75822DC003120D6FD0C1
:1012E0000315448024E546602030060E75822BC02D
:1012F00003120D6FD0031544800F30070C75822048
:10130000C003120D6FD003154420041EAC441544D5
:10131000C3E5469C50273005047C3080027C208C3D
:1013200082C003120D6FD00380E2C3E5469544509E
:1013300009E544C39546F54480037544008B00AB32
:10134000461546EB6022B20C200C0A08E6C4540F86
:10135000FB8B4080078603740F5BF540854082C09D
:1013600000120D89D00080D7200403020E03AB4485
:101370001544EB7003020E03758220120D6F80EE90
:101380008A82120D6F020E0385418285428322AA52
:1013900082BA0A0810990280FB75990D1099028093
:1013A000FB8A9922AA82AB83A2F73392D16002D240
:1013B000F7F582ACF0226040F82582500274FFF508
:1013C00082E824F8501ECCCBCAF9E4CC24F850149F
:1013D000CBCAF9E4CB24F8500BCAF9E4CA24F8507C
:1013E0000379002224086010F8C3EC13FCEB13FB14
:1013F000EA13FAE913F9D8F122AA82AB83ACF07DA3
:10140000007E008A828B838CF0120871FFA3AA826F
:10141000AB83EF60070DBD00EA0E80E78D828E83FF
:10142000220000000000000000000000000000009A
:00000001FF
