:10000000020003758166120138E582600302006F09
:10001000780079007A007B007C007D00EC4D601C4C
:1000200088828983E493A3A882A9838A828B83F040
:10003000A3AA82AB831CBCFFE31D80E07582007520
:1000400083007C007D00EC4D600AE4F0A31CBCFF43
:10005000F51D80F27582007583007C007D00EC4DFB
:10006000600AE4F0A31CBCFFF51D80F212007412BC
:10007000043B80FE75250022000000000000000007
:100090000000000201A8436F6D6D616E643A202577
:1000A00073000D0A4A44592D343020746573740D61
:1000B0000A0041542B44564944323338350D0A0066
:1000C00041542B5645520D0A0041542B4241554490
:1000D0000D0A0041542B524649440D0A0041542B4D
:1000E000445649440D0A0041542B5246430D0A0020
:1000F00041542B504F57450D0A0041542B434C534C
:10010000530D0A00447574793A2025302E34662C3C
:10011000204D6F746F722053746174653A202564AA
:100120002C20506F74656E74696F6D657465723ADA
:100130002025302E34660A0075A7007597DE759766
:10014000AD75FF8075EF0675A71075C12075A70006
:1001500075A90075A900E5A930E7FB75A90375A984
:1001600003E5A930E7FB43A41143A60175E101753E
:10017000E20075E341759810758DE6858D8B538986
:100180000F438920D28ED29975A71075C0007523B0
:10019000D87524DC75D4FF75D5FF43F308D2C2D2DD
:1001A000AF75A70075820022C0E0C002C003C00482
:1001B000C005C0D075D00075A710C2C7AA25BA0067
:1001C000028005BA0132800FD29775D2A075D3157F
:1001D0007525010526802CC297AA23AB24E4FCFDDB
:1001E00074A0C39AFA74159BFBE49CFCE49DFD8A01
:1001F000D28BD3752502800BC2978523D28524D359
:10020000752500D0D0D005D004D003D002D0E03284
:10021000AA82438E407592B87593FF859294859318
:10022000957591047B00C3EB9A500BE59130E7FB89
:1002300053917F0B80F075910022AA82AB837C00E2
:100240007D00C3EC9AED9B502B7E00BE0400501D38
:100250007582FAC002C003C004C005C006120210B5
:10026000D006D005D004D003D0020E80DE0CBC0036
:10027000D10D80CE22AA82AB83ACF0FD75A720758C
:10028000930C75C8107594008A1C8B1D8C1E8D1FD5
:1002900090A20075F04A7404120628AA82AB83ACBF
:1002A000F0FD751C18E4F51DF51EF51F8A828B8381
:1002B0008CF0ED120628AA82AB83ACF0FDE4C39A61
:1002C000FAE49BFB74019CE49D8A958B96D2C9430A
:1002D000944075A70022AA8275A72010C90280FB4E
:1002E0008A9275A70022AA82AB83ACF08A828B83A4
:1002F0008CF012060CFD60188D82C002C003C00491
:100300001202D6D004D003D0020ABA00DF0B80DC80
:100310002275A72010C80280FB53C83F85928275C2
:10032000A7002275A7207A007B0020C82675A700A9
:10033000758214C002C003120210D003D00275A748
:10034000200ABA00010BBAA8E1BB61DE75A70075EF
:10035000820A22C2C853C83F85928275A70022AA8A
:1003600082AB83ACF0C002C003C004120323AD8291
:10037000D004D003D002BD0A0A8A828B838CF0E4B9
:1003800002098A8A828B838CF0ED12098AA3AA82E1
:10039000AB8380D175A720A2C875A70022AA82AB23
:1003A000837C007D00C3EC9AED9B50477E00BE0429
:1003B000005039C002C003C004C005C00612039437
:1003C000E433D006D005D004D003D00260012275FA
:1003D00082FAC002C003C004C005C006120210D0D9
:1003E00006D005D004D003D0020E80C20CBC00B5EC
:1003F0000D80B222AA82AB83ACF0C002C003C0045D
:10040000C002C003C0047496C0E07400C0E07480F1
:10041000C0E0120969E58124FAF581C2A0900005C7
:1004200012023AD004D003D0028A828B838CF0125D
:1004300002E690000A12023AD2A022753300753407
:100440000075358075363FE4F537F538F5269001AF
:10045000F412023A74A2C0E07400C0E07480C0E0FC
:10046000120969158115811581902580E4F5F01236
:1004700002759000B275F0801203F49000C075F020
:10048000801203F49000C975F0801203F49000D339
:1004900075F0801203F49000DD75F0801203F49083
:1004A00000E775F0801203F49000F075F0801203FD
:1004B000F49000FA75F0801203F4120394400302E2
:1004C000054790004375F04012035F90004375F0BC
:1004D0004012073085822F85833085F031F532E573
:1004E0003745386052E4C0E0C0E074A0C0E074401A
:1004F000C0E0852F828530838531F0E5321209B95D
:1005000085823985833A85F03BF53CE58124FCF50D
:1005100081C039C03AC03BC03C900000E4F5F074A3
:10052000401209A385823385833485F035F536E59D
:100530008124FCF5818010E5374538700AF533F5E4
:100540003475358075363FC033C034C035C0369001
:10055000A00075F08C744712068DAE82AF83AAF0AE
:10056000FBE58124FCF581E4C0E0C0E07440C0E01C
:100570007441C0E08E828F838AF0EB1209B9AA829F
:10058000AB83ACF0FDE58124FCF581C002C003C063
:1005900004C00590000075F08074471209A3AA8278
:1005A000AB83ACF0FDE58124FCF5818A828B838CE2
:1005B000F0ED1209AE85822385832420B70EE5373E
:1005C00045387008753701E4F538800E20B70BE523
:1005D0003745386005E4F537F538C02FC030C031F5
:1005E000C032C037C038C033C034C035C0367404E0
:1005F000C0E07401C0E07480C0E0120969E58124A4
:10060000F3F58190006412039D0204BA20F71430C0
:10061000F6148883A88220F507E6A8837583002254
:10062000E280F7E49322E022FB7A20E4FCFDFEFF67
:10063000E5822582F582E58333F583E5F033F5F035
:10064000EB33FB4017DAE98042E5822582F582E54B
:100650008333F583E5F033F5F0EB33FBEC33FCED5E
:1006600033FDEE33FEEF33FFEC951CED951DEE955B
:100670001EEF951F4013EC951CFCED951DFDEE95AE
:100680001EFEEF951FFF438201DABEEB22120B5ACA
:10069000BC0003020AF9EF60FA30D502B2D1E5835B
:1006A000B4FF03020B0FE582B4FF03020B0F258397
:1006B00040072482400B020AF92483145003020BE2
:1006C0000FF582EA8DF0A4A8F0EA8EF0A428F8E4F1
:1006D00035F0F9EB8DF0A428E935F0F9E433CA8F51
:1006E000F0A429F9EA35F0FAEBF88EF0A429F9EA3A
:1006F00035F0FAE433FBEC8DF0A429F9EA35F0FA91
:10070000E43BFBE88FF0A42AFAEB35F0FBE433CCB2
:10071000FD8EF0A42AFAEB35F0FBE43CFCED8FF003
:10072000A42BFBEC35F0FC20E703120B27020AD8C0
:10073000AA82AB83ACF0754100754200C2028A0503
:100740008B068C078D828E838FF012060CF8B820F2
:10075000028003B809070DBD00EA0E80E78D028E06
:10076000038F04B82D0DD20074012DFAE43EFB8FE7
:1007700004800EC200B82B0974012DFAE43EFB8FF1
:1007800004753D00753E00753F007540008A058B7D
:10079000068C078D828E838FF012060CF8F9B93023
:1007A000004005E824C650128D828E838FF0120619
:1007B0000CF8B82E0280030208658D828E838FF0BC
:1007C00012060CF9B92E05D20202085DC005C0065A
:1007D000C007C005C006C007C001C03DC03EC03F45
:1007E000C04090000075F020744112068D85823D56
:1007F00085833E85F03FF540E58124FCF581D001FD
:10080000D007D006D005E93395E0FDE924D0F58284
:10081000ED34FFF583120BE1AD82AE83AFF0F9C08A
:1008200005C006C007C005C006C007C001853D82DF
:10083000853E83853FF0E540120B8885823D8583A8
:100840003E85F03FF540E58124FCF581D007D006D8
:10085000D005D007D006D00530020215410DBD00ED
:10086000010E0207935300DF8D828E838FF0E81212
:10087000098AB8456274012DFAE43EFB8F048A822E
:100880008B838CF012060CFDBD2D09D2010ABA0033
:100890000D0B800AC201BD2B050ABA00010B75427F
:1008A000008A828B838CF012060CFDFEBE30004065
:1008B0001D8D06EE24C64016E54275F00AA4F542E9
:1008C000ED24D02542F5420ABA00D60B80D3300180
:1008D00006C3E49542F542E5412542F542E5426012
:1008E00055E54230E728C03DC03EC03FC04090CCF7
:1008F000CD75F0CC743D12068D85823D85833E8595
:10090000F03FF540E58124FCF581054280CFC03DF4
:10091000C03EC03FC04090000075F02074411206F8
:100920008D85823D85833E85F03FF540E58124FC41
:10093000F581154280A730000F853D3D853E3E85FF
:100940003F3FE540B2E7F540853D82853E83853FE8
:10095000F0E5402202157A85821885831985F01A00
:1009600085091B900954020FCDC008858108E50850
:1009700024FBF51BE50824FBF88618088619088671
:100980001A900954120FCDD0082220F71030F6111A
:100990008883A88220F507F6A88375830022F28059
:1009A000F7F022A8811818C6B2E7C6020B887F8E1E
:1009B000121591F58385F08222120B5A30D502B2BE
:1009C000D1BF0009BC0003020B1C020B0FBC0003CB
:1009D000020AF9E583B4FF0BE582B4FF03020B1CA6
:1009E000020AF9E582B4FF03020B0FC39583500797
:1009F000247F400B020AF92480145003020B0FC01D
:100A0000E0E4CCCBCAF98D1C8E1D8F1EEF54F0C4D0
:100A1000F51F758306851FF0EB84F582E9C4F9EABA
:100A2000C4FAEBC4FBEC540FC47803D6FC18EBD625
:100A3000FB18EAD6FA8582F0EDA4A8F0FD8582F0D5
:100A4000EEA428FEE435F0F88582F0EFA428FFE458
:100A500035F0F8E99DF9EA9EFAEB9FFBEC98FCADC6
:100A60001CAE1DAF1E30E7101582E92DF9EA3EFAE3
:100A7000EB3FFBE43CFC80EDC082D58398C3E933B7
:100A8000F9EA33FAEB33FBEC33FCC3E99DEA9EEB66
:100A90009FEC9400B3E413F9D002D0E0C44AFAD03A
:100AA00003D0E0C44BFBD004D0E0F5F0540FC44CAD
:100AB000FCD082158230F40FD3EC13FCEB13FBEA6D
:100AC00013FAE913F90582E930E70A74012AFAE416
:100AD0003BFBE43CFC020AF0B98003EA13B340108C
:100AE000EA2401FAE43BFBE43CFC50047C800582F0
:100AF000BC000EBB000BBA0008E4F5F0F583F582EC
:100B000022A2D1E582138CF092F78B838A8222E4B1
:100B1000F583F58275F080F4A2D11322E4F583F514
:100B20008275F0C0747F227804EC7011E58224F89D
:100B3000500AF582E4C9CACBFCD8EF22EC78200534
:100B40008220E713D5820122C3E933F9EA33FAEBB5
:100B500033FBEC33FCD8EA158222AA82AB83A2F7DE
:100B60003392D16002D2F7F582ACF0E58124F9F836
:100B7000E6FD08E6FE0886F008E6A2F73392D560A7
:100B800002D2F7F583AFF022120B5A7900E583B554
:100B90008202800D50031215B6E583C395821215AB
:100BA000D0E5D0C465D020E117EA2DFAEB3EFBEC8E
:100BB0003FFC500974011215D0EC4480FC020AD8A5
:100BC000C3EA9DFAEB9EFBEC9FFC500FC3E499F93E
:100BD000E49AFAE49BFBE49CFCB2D1120B27020AD4
:100BE000D8AC83AB827A007900748E02161CAA827C
:100BF00074FFC0E0740BC0E0C00AC00B8A822205FB
:100C000011E4B51102051222AA8274302AFA24C610
:100C1000500A74072AFA3003034302208A82020B27
:100C2000EEE582FAC4540FF582C002120C08D0021D
:100C3000740F5AF582020C08AA0CAB0DAC0EAD0F66
:100C4000AE10751720EE2EFEED235401FF4206EA8A
:100C50002AFAEB33FBEC33FCED33FDC3EE95134086
:100C600008EEC39513FE430201D517D98A0C8B0DEC
:100C70008C0E8D0F8E10227863E624D075F00AA4B6
:100C8000FA7864E624D02AFA78628603BB2D04C37E
:100C9000E49AFA751301C3E464808AF063F08095E6
:100CA000F050297517038A0374F62517401C0513A5
:100CB000E517142457F8E5172457F98704A6047795
:100CC0002E1BEBFA6004051780DE8B02EA30E70D7D
:100CD000785886037859A6037858762E0AE5156069
:100CE0000AE51504FB2513F5138005300E020513E4
:100CF00078578603E4BB2D0104FB700620090330FE
:100D00000A020513300703020DBE300857EB600CD2
:100D100075822DC002120BEED002801C30090C75BA
:100D2000822BC002120BEED002800D300A0A7582AF
:100D300020C002120BEED00278588604BC2E0C752F
:100D40008230C002120BEED0021514AC141514C37D
:100D5000E5139C4003020E02758230C002120BEEB6
:100D6000D00280E7AC141514C3E5139C500C7582B7
:100D700020C002120BEED00280EA78578604BC2D08
:100D80000C75822DC002120BEED002801C30090CB3
:100D900075822BC002120BEED002800D300A0A754C
:100DA0008220C002120BEED00278588604BC2E526C
:100DB000758230C002120BEED00215148044EB6035
:100DC0000E75822DC002120BEED002151480203059
:100DD000090E75822BC002120BEED0021514800F83
:100DE000300A0C758220C002120BEED00215147866
:100DF000588603BB2E0C758230C002120BEED00257
:100E00001514751701C210E5172457F88603BB4562
:100E100003020EBFBB2E348A03C3E464808BF063ED
:100E2000F08095F0500F758230C003120BEED003A6
:100E30001B8B0280E48B02D210E5157038200E0364
:100E4000020EBF75822E120BEE80743010278A03BB
:100E5000EB30E71FC3E464808515F063F08095F004
:100E6000500C758230C003120BEED00315150B8B9E
:100E70000280DD8B0230100EC3E464808515F063C0
:100E8000F08095F05021E5172457F886038B82C037
:100E900002120BEED00230100EE5172457F886032D
:100EA000BB2E02800215151514C3E464808515F06D
:100EB00063F08095F040032010050517020E07C36C
:100EC000E464808515F063F08095F0500A758230F7
:100ED000120BEE151580E830070FAA141514EA60FE
:100EE00008758220120BEE80F122E5157003300E9A
:100EF0000D74072515FAE514C39AF5148006E51458
:100F000024FAF51475170078578602BA2B0F2009BA
:100F10000C78577620200A0575170105142007194B
:100F2000AA14C3E464808AF063F08095F0500A75D7
:100F30008220120BEE151480E7C210E5172457F833
:100F40008602BA00028069BA451F3003027665C383
:100F5000E464808515F063F08095F0500A75823066
:100F6000120BEE151580E8D210C3E5179402E43396
:100F7000FA7014EA700EC3E464808515F063F080A3
:100F800095F04003301016E5172457F886028A8240
:100F9000120BEEE51724FD50121515800E7402B5E4
:100FA0001709300E0675822E120BEE0517020F3B45
:100FB000300719AA14C3E464808AF063F08095F0C6
:100FC000500A758220120BEE151480E72285820AE2
:100FD00085830BE4F511F512AA18AB19AC1A8A82B5
:100FE0008B838CF012060CFD74012AF518E43BF596
:100FF000198C1AEDFA7003021573BA2502800302E8
:10100000156BC207C208C209C20AC20BC20CC20DCC
:10101000C20EC204C205C206751300751400751510
:10102000FFAB18AC19AD1A8B828C838DF012060CB5
:10103000FAA3AB82AC838B188C198D1ABA25078A58
:1010400082120BEE80928A06BE3000402E8A06EE97
:1010500024C6402774FFB51513E51475F00AA4FEE5
:10106000EA24D02EF51470BFD20880BBE51575F0C8
:101070000AA4FEEA24D02EF51580ACBA2E0A74FF1D
:10108000B515A4751500809F8A06BE6100400E8AC2
:1010900006EE248540075302DFD2038002C203BA62
:1010A00020028075BA2303021128BA2A0302112DE7
:1010B000BA2B02805FBA2D028055BA4202805FBA15
:1010C0004303021172BA44030212ADBA450302127D
:1010D000C7BA46030212C3BA47030212CBBA490386
:1010E0000212ADBA4C02803BBA4E030212CFBA4F85
:1010F000030212B4BA5003021246BA530302119605
:10110000BA55030212B9BA58030212BE0212F9D23A
:1011100007021027D209021027D20A021027D20C88
:10112000021027D20D021027D20E02102774FFB52D
:101130001520300C0BE51B14F8881B8614021027B1
:10114000E51B24FEF8881B8606088607188E140205
:101150001027300C0BE51B14F8881B86150210278E
:10116000E51B24FEF8881B8606088607188E1502E4
:101170001027300C0AE51B14F8881B8602800FE547
:101180001B24FEF8881B8603088604188B028A82BB
:10119000120BEE0212FEE51B24FDF8881B860308E5
:1011A000860408860518188B0C8C0D8D0E8B828C8E
:1011B000838DF012175FAB82AC838B1674FFB5156D
:1011C0000385161520071DC3E51695145016E51462
:1011D000C39516F514AB141514EB60087582201234
:1011E0000BEE80F1850C82850D83850EF012060CC6
:1011F000FBFA6029AB151515C3E464808BF063F02E
:101200008095F050188A82120BEEAB0CAC0DAD0E2F
:101210000BBB00010C8B0C8C0D8D0E80C7200703BF
:101220000212FEC3E516951440030212FEE514C334
:101230009516F514AB141514EB70030212FE7582AB
:1012400020120BEE80EEE51B24FDF8881B860308B8
:10125000860408860518188B0C8C0D8D0EE50EFB88
:1012600030E7047A438013EB546060047A50800ABC
:10127000EB30E6047A4980027A588A82C002120B67
:10128000EE75823A120BEE758230120BEE75827893
:10129000120BEED002BA4902800BBA5002800685CA
:1012A0000D82120C21850C82120C218051D20B75FB
:1012B000130A804A751308804575130A8040751318
:1012C00010803BD2048037D2058033D206802FE5D0
:1012D0001B24FDF8881B8603088604088605181859
:1012E0008B0C8C0D8D0E8B828C838DF0E511120989
:1012F0008AA3E51212098A80058A82120BEE200465
:1013000006200503300670E51B24FCF8881B8603C5
:101310000886040886050886061818188B0C8C0D9C
:101320008D0E8E0FE50CE50DE50EE50F8B828C839F
:101330008DF0EE12164074FFB515037515063006D4
:1013400027747F550FFB8B10E510EB2BFB8B10E503
:101350000E30E70674014510F510E51024684006CC
:10136000749925104002D205300506120EEA020FCC
:10137000D8120C77020FD8E5137003020FD87B5CEC
:10138000300C2BE51B14F8881BE6FC3395E0FDFEC2
:10139000FF8C0C8D0D8E0E8F0F200B5EAC0C7D0024
:1013A0007E007F008C0C8D0D8E0E8F0F804C300DCB
:1013B0001FE51B24FCF8881B8604088605088606A2
:1013C0000886071818188C0C8D0D8E0E8F0F802A2A
:1013D000E51B24FEF8881B860408860518ED339566
:1013E000E0FEFF8C0C8D0D8E0E8F0F200B0CAC0CC5
:1013F000AD0D7E007F008E0E8F0F300E43E50C4545
:101400000D450E450F60397408B5130C758230C058
:1014100003120BEED00380287410B51323758230AD
:10142000C003120BEED00330030C758278C0031298
:101430000BEED003800A758258C003120BEED00366
:10144000300B25AC0CAD0DAE0EE50FFF30E717C32A
:10145000E49CFCE49DFDE49EFEE49FFF8C0C8D0D5E
:101460008E0E8F0F8002C20B751600D20F8B007587
:101470001000C000120C38D000200F0DE510C4FC85
:10148000E6FD4CF61888038002A6100516B20FE59B
:101490000C450D450E450F70D68803E51470037595
:1014A000140120081A200717E51604FCC3951450F0
:1014B0000E758220C003120BEED003151480E930A4
:1014C0000B0E75822DC003120BEED0031514802471
:1014D000E516602030090E75822BC003120BEED08A
:1014E000031514800F300A0C758220C003120BEE16
:1014F000D003151420071EAC141514C3E5169C5018
:10150000273008047C3080027C208C82C003120BC0
:10151000EED00380E2C3E51695145009E514C39597
:1015200016F51480037514008B00AB161516EB60CE
:1015300022B20F200F0A08E6C4540FFB8B1080075D
:101540008603740F5BF510851082C000120C08D062
:101550000080D7200703020FD8AB141514EB7003DB
:10156000020FD8758220120BEE80EE8A82120BEEEB
:10157000020FD885118285128322AA82BA0A081026
:10158000990280FB75990D10990280FB8A99227F40
:101590009E12178730D103020AF9C3EF95825009D2
:1015A00074FFF5F0F583F5822279001215D0898257
:1015B0008A838BF0EC22E582C583F582A2D133A227
:1015C000D592D11392D5ECCFFCEBCEFBEACDFA222B
:1015D0006040F82582500274FFF582E824F8501E1E
:1015E000CCCBCAF9E4CC24F85014CBCAF9E4CB2410
:1015F000F8500BCAF9E4CA24F850037900222408F1
:101600006010F8C3EC13FCEB13FBEA13FAE913F9CF
:10161000D8F122FCABF0AA83A982749EF582C2D1D4
:10162000EC30E716D2D1E9F42401F9EAF43400FAF7
:10163000EBF43400FBECF43400FC120B27020AD864
:10164000C0E0F84582458345F07009F5F0FBFCFDEC
:10165000FE02170EE823A2F792E0F8A982AA83D22D
:10166000F7ABF07C007E07C3749798404074FF2E60
:10167000FE740A89F0A4F985F082740A8AF0A4FA4B
:1016800085F083740A8BF0A4FB740529F9EA35828E
:10169000FAEB3583FB740035F0FCC3EC13FCEB1361
:1016A000FBEA13FAE913F908EC70EF80BAE8C39487
:1016B0007FF88B838EF0E4FBFCFDFEFF08C3E9336B
:1016C000F9EA33FAE58333F583EB3BD4FBEC3CD406
:1016D000FCED3DD4FDEE3ED4FEEF3FD4FF602D0582
:1016E000F074052BD4FBE43CD4FCE43DD4FDE43E93
:1016F000D4FEE43FD4FF758204C3EF13FFEE13FE64
:10170000ED13FDEC13FCEB13FBD582EDD8AF78574E
:10171000D0E020E704762B8002762D087906E7C416
:10172000540F4430F608B90603762E08E7540F44E8
:1017300030F60819B902E7764508E5F020E70476A7
:101740002B8004762DF4040875F00A844430F608E2
:10175000E5F04430F608E4F690005775F04022AA10
:1017600082AB83ACF07D007E008A828B838CF0128A
:10177000060CFFA3AA82AB83EF60070DBD00EA0E43
:1017800080E78D828E8322AA82AB83A2F73392D127
:101790006002D2F7F582ACF02200000000000000E9
:00000001FF
