:1000000002000375816412012BE582600302006F18
:10001000780079007A007B007C007D00EC4D601C4C
:1000200088828983E493A3A882A9838A828B83F040
:10003000A3AA82AB831CBCFFE31D80E07582007520
:1000400083007C007D00EC4D600AE4F0A31CBCFF43
:10005000F51D80F27582007583007C007D00EC4DFB
:10006000600AE4F0A31CBCFFF51D80F212007412BC
:10007000042E80FE75250022000000000000000014
:1000900000000002019B436F6D6D616E643A202584
:1000A00073000D0A4A44592D343020746573740D61
:1000B0000A0041542B44564944323338350D0A0066
:1000C00041542B5645520D0A0041542B4241554490
:1000D0000D0A0041542B524649440D0A0041542B4D
:1000E000445649440D0A0041542B5246430D0A0020
:1000F00041542B504F57450D0A0041542B434C534C
:10010000530D0A004C583A2025302E34662C2052CC
:10011000593A2025302E34660A2C204D6F746F72A8
:100120002053746174653A2025640075A7007597A3
:10013000DE7597AD75FF8075EF0675A71075C12048
:1001400075A70075A90075A900E5A930E7FB75A999
:100150000375A903E5A930E7FB43A41143A6017584
:10016000E10175E20075E341759810758DE6858DA6
:100170008B53890F438920D28ED29975A71075C0F1
:10018000007523D87524DC75D4FF75D5FF43F308BB
:10019000D2C2D2AF75A70075820022C0E0C002C0F3
:1001A00003C004C005C0D075D00075A710C2C7AA8F
:1001B00025BA00028005BA0132800FD29775D2A00D
:1001C00075D3157525010526802CC297AA23AB246B
:1001D000E4FCFD74A0C39AFA74159BFBE49CFCE458
:1001E0009DFD8AD28BD3752502800BC2978523D2C1
:1001F0008524D3752500D0D0D005D004D003D002FB
:10020000D0E032AA82438E407592B87593FF8592F2
:10021000948593957591047B00C3EB9A500BE591FF
:1002200030E7FB53917F0B80F075910022AA82ABDF
:10023000837C007D00C3EC9AED9B502B7E00BE04B6
:1002400000501D7582FAC002C003C004C005C0067C
:10025000120203D006D005D004D003D0020E80DEF7
:100260000CBC00D10D80CE22AA82AB83ACF0FD7510
:10027000A72075930C75C8107594008A1C8B1D8C73
:100280001E8D1F90A20075F04A7404120667AA82A0
:10029000AB83ACF0FD751C18E4F51DF51EF51F8A47
:1002A000828B838CF0ED120667AA82AB83ACF0FDE3
:1002B000E4C39AFAE49BFB74019CE49D8A958B96B7
:1002C000D2C943944075A70022AA8275A72010C9FD
:1002D0000280FB8A9275A70022AA82AB83ACF08AC7
:1002E000828B838CF012064BFD60188D82C002C099
:1002F00003C0041202C9D004D003D0020ABA00DF3E
:100300000B80DC2275A72010C80280FB53C83F85F4
:10031000928275A7002275A7207A007B0020C8264C
:1003200075A700758214C002C003120203D003D067
:100330000275A7200ABA00010BBAA8E1BB61DE75FD
:10034000A70075820A22C2C853C83F85928275A74A
:100350000022AA82AB83ACF0C002C003C004120327
:1003600016AD82D004D003D002BD0A0A8A828B83E4
:100370008CF0E40209C98A828B838CF0ED1209C9E2
:10038000A3AA82AB8380D175A720A2C875A700223B
:10039000AA82AB837C007D00C3EC9AED9B50477E24
:1003A00000BE04005039C002C003C004C005C0062E
:1003B000120387E433D006D005D004D003D0026006
:1003C00001227582FAC002C003C004C005C0061233
:1003D0000203D006D005D004D003D0020E80C20C98
:1003E000BC00B50D80B222AA82AB83ACF0C002C0C3
:1003F00003C004C002C003C0047496C0E07400C00F
:10040000E07480C0E01209A8E58124FAF581C2A059
:1004100090000512022DD004D003D0028A828B8373
:100420008CF01202D990000A12022DD2A022753748
:1004300000753800753900753A0075330075340061
:10044000753500753600752F007530007531807573
:10045000323F7C007D007526009001F4C004C00589
:1004600012022D74A2C0E07400C0E07480C0E012DB
:1004700009A8158115811581902580E4F5F01202F7
:10048000689000B275F0801203E79000C075F080AC
:100490001203E79000C975F0801203E79000D3754E
:1004A000F0801203E79000DD75F0801203E7900002
:1004B000E775F0801203E79000F075F0801203E713
:1004C0009000FA75F0801203E7D005D004EC4D607F
:1004D0000E752F667530667531A675323F800EEC4D
:1004E0004D700AF52FF53075318075323FC004C06C
:1004F00005C02FC030C031C03290A00075F08C74A0
:10050000471206CCAA82AB83AEF0FFE58124FCF54E
:1005100081E4C0E0C0E07440C0E07441C0E08A8281
:100520008B838EF0EF1209F8AA82AB83AEF0FFE561
:100530008124FCF581C002C003C006C00790000002
:1005400075F08074471209E2AA82AB83AEF0FFE532
:100550008124FCF5818A828B838EF0EF1209ED8570
:100560008223858324120387D005D004400302052B
:10057000FA90004175F040C004C005120352D00546
:10058000D0047A007B00C3EA9405EB648094805029
:1005900013EA2427F8EA2441F98706A6060ABA00D6
:1005A000E50B80E27A077B00C3EA940BEB6480944E
:1005B0008050178A06EE24F9242BF8EA2441F987A3
:1005C00006A6060ABA00E10B80DE90002775F0400F
:1005D000C004C00512076F85823785833885F039DE
:1005E000F53A90002B75F04012076F8582338583B2
:1005F0003485F035F536D005D00420B709EC4D70C0
:10060000057C01FD800B20B708EC4D60047C007D6B
:1006100000C004C005C004C005C033C034C035C02C
:1006200036C037C038C039C03A7404C0E07401C065
:10063000E07480C0E01209A8E58124F3F581900000
:1006400064120390D005D0040204CD20F71430F6D4
:10065000148883A88220F507E6A88375830022E228
:1006600080F7E49322E022FB7A20E4FCFDFEFFE524
:10067000822582F582E58333F583E5F033F5F0EBEF
:1006800033FB4017DAE98042E5822582F582E58373
:1006900033F583E5F033F5F0EB33FBEC33FCED336E
:1006A000FDEE33FEEF33FFEC951CED951DEE951E30
:1006B000EF951F4013EC951CFCED951DFDEE951E6E
:1006C000FEEF951FFF438201DABEEB22120B99BCAD
:1006D0000003020B38EF60FA30D502B2D1E583B4E3
:1006E000FF03020B4EE582B4FF03020B4E2583404D
:1006F000072482400B020B382483145003020B4E54
:10070000F582EA8DF0A4A8F0EA8EF0A428F8E4358A
:10071000F0F9EB8DF0A428E935F0F9E433CA8FF055
:10072000A429F9EA35F0FAEBF88EF0A429F9EA35B4
:10073000F0FAE433FBEC8DF0A429F9EA35F0FAE4A1
:100740003BFBE88FF0A42AFAEB35F0FBE433CCFD59
:100750008EF0A42AFAEB35F0FBE43CFCED8FF0A41C
:100760002BFBEC35F0FC20E703120B66020B17AAFB
:1007700082AB83ACF0753F00754000C2028A058BE6
:10078000068C078D828E838FF012064BF8B82002FC
:100790008003B809070DBD00EA0E80E78D028E03C5
:1007A0008F04B82D0DD20074012DFAE43EFB8F04A6
:1007B000800EC200B82B0974012DFAE43EFB8F04B1
:1007C000753B00753C00753D00753E008A058B0643
:1007D0008C078D828E838FF012064BF8F9B93000AA
:1007E0004005E824C650128D828E838FF012064B8E
:1007F000F8B82E0280030208A48D828E838FF01237
:10080000064BF9B92E05D20202089CC005C006C0ED
:1008100007C005C006C007C001C03BC03CC03DC00A
:100820003E90000075F02074411206CC85823B8515
:10083000833C85F03DF53EE58124FCF581D001D077
:1008400007D006D005E93395E0FDE924D0F582ED27
:1008500034FFF583120C20AD82AE83AFF0F9C005F2
:10086000C006C007C005C006C007C001853B828521
:100870003C83853DF0E53E120BC785823B85833C7A
:1008800085F03DF53EE58124FCF581D007D006D00A
:1008900005D007D006D005300202153F0DBD00017E
:1008A0000E0207D25300DF8D828E838FF0E812098B
:1008B000C9B8456274012DFAE43EFB8F048A828B2D
:1008C000838CF012064BFDBD2D09D2010ABA000D32
:1008D0000B800AC201BD2B050ABA00010B7540004E
:1008E0008A828B838CF012064BFDFEBE3000401DC9
:1008F0008D06EE24C64016E54075F00AA4F540EDDD
:1009000024D02540F5400ABA00D60B80D33001062A
:10091000C3E49540F540E53F2540F540E54060558E
:10092000E54030E728C03BC03CC03DC03E90CCCD48
:1009300075F0CC743D1206CC85823B85833C85F0F6
:100940003DF53EE58124FCF581054080CFC03BC0EC
:100950003CC03DC03E90000075F02074411206CCB2
:1009600085823B85833C85F03DF53EE58124FCF5A1
:1009700081154080A730000F853B3B853C3C853D81
:100980003DE53EB2E7F53E853B82853C83853DF003
:10099000E53E220215B985821885831985F01A85EE
:1009A000091B90099302100CC008858108E50824F2
:1009B000FBF51BE50824FBF8861808861908861A3B
:1009C00090099312100CD0082220F71030F61188ED
:1009D00083A88220F507F6A88375830022F280F7AA
:1009E000F022A8811818C6B2E7C6020BC77F8E1284
:1009F00015D0F58385F08222120B9930D502B2D141
:100A0000BF0009BC0003020B5B020B4EBC000302DB
:100A10000B38E583B4FF0BE582B4FF03020B5B02E6
:100A20000B38E582B4FF03020B4EC39583500724B5
:100A30007F400B020B382480145003020B4EC0E0A1
:100A4000E4CCCBCAF98D1C8E1D8F1EEF54F0C4F57B
:100A50001F758306851FF0EB84F582E9C4F9EAC4AB
:100A6000FAEBC4FBEC540FC47803D6FC18EBD6FBAE
:100A700018EAD6FA8582F0EDA4A8F0FD8582F0EEA2
:100A8000A428FEE435F0F88582F0EFA428FFE435D1
:100A9000F0F8E99DF9EA9EFAEB9FFBEC98FCAD1C9F
:100AA000AE1DAF1E30E7101582E92DF9EA3EFAEBD4
:100AB0003FFBE43CFC80EDC082D58398C3E933F969
:100AC000EA33FAEB33FBEC33FCC3E99DEA9EEB9F80
:100AD000EC9400B3E413F9D002D0E0C44AFAD00396
:100AE000D0E0C44BFBD004D0E0F5F0540FC44CFC74
:100AF000D082158230F40FD3EC13FCEB13FBEA1316
:100B0000FAE913F90582E930E70A74012AFAE43BAD
:100B1000FBE43CFC020B2FB98003EA13B34010EA5C
:100B20002401FAE43BFBE43CFC50047C800582BCDD
:100B3000000EBB000BBA0008E4F5F0F583F5822245
:100B4000A2D1E582138CF092F78B838A8222E4F59E
:100B500083F58275F080F4A2D11322E4F583F58247
:100B600075F0C0747F227804EC7011E58224F8508F
:100B70000AF582E4C9CACBFCD8EF22EC78200582C2
:100B800020E713D5820122C3E933F9EA33FAEB33C4
:100B9000FBEC33FCD8EA158222AA82AB83A2F7339E
:100BA00092D16002D2F7F582ACF0E58124F9F8E643
:100BB000FD08E6FE0886F008E6A2F73392D560024B
:100BC000D2F7F583AFF022120B997900E583B58255
:100BD00002800D50031215F5E583C3958212160F9E
:100BE000E5D0C465D020E117EA2DFAEB3EFBEC3FDF
:100BF000FC5009740112160FEC4480FC020B17C361
:100C0000EA9DFAEB9EFBEC9FFC500FC3E499F9E4DC
:100C10009AFAE49BFBE49CFCB2D1120B66020B1720
:100C2000AC83AB827A007900748E02165BAA827460
:100C30003EC0E0740CC0E0C00AC00B8A82220511DD
:100C4000E4B51102051222AA8274302AFA24C65091
:100C50000A74072AFA3003034302208A82020C2D09
:100C6000E582FAC4540FF582C002120C47D0027418
:100C70000F5AF582020C47AA0CAB0DAC0EAD0FAEAD
:100C800010751720EE2EFEED235401FF4206EA2ACE
:100C9000FAEB33FBEC33FCED33FDC3EE9513400868
:100CA000EEC39513FE430201D517D98A0C8B0D8C28
:100CB0000E8D0F8E10227861E624D075F00AA4FA0A
:100CC0007862E624D02AFA78608603BB2D04C3E458
:100CD0009AFA751301C3E464808AF063F08095F09A
:100CE00050297517038A0374F62517401C0513E570
:100CF00017142455F8E5172455F98704A604772E10
:100D00001BEBFA6004051780DE8B02EA30E70D78F2
:100D10005686037857A6037856762E0AE515600A9C
:100D2000E51504FB2513F5138005300E0205137835
:100D3000558603E4BB2D0104FB7006200903300A2D
:100D4000020513300703020DFD300857EB600C75E8
:100D5000822DC002120C2DD002801C30090C75822D
:100D60002BC002120C2DD002800D300A0A75822091
:100D7000C002120C2DD00278568604BC2E0C75824F
:100D800030C002120C2DD0021514AC141514C3E59A
:100D9000139C4003020E41758230C002120C2DD00C
:100DA0000280E7AC141514C3E5139C500C75822027
:100DB000C002120C2DD00280EA78558604BC2D0C9E
:100DC00075822DC002120C2DD002801C30090C75CA
:100DD000822BC002120C2DD002800D300A0A7582BF
:100DE00020C002120C2DD00278568604BC2E5275FB
:100DF0008230C002120C2DD00215148044EB600E1C
:100E000075822DC002120C2DD002151480203009DD
:100E10000E75822BC002120C2DD0021514800F30DB
:100E20000A0C758220C002120C2DD00215147856BF
:100E30008603BB2E0C758230C002120C2DD0021519
:100E400014751701C210E5172455F88603BB450336
:100E5000020EFEBB2E348A03C3E464808BF063F081
:100E60008095F0500F758230C003120C2DD0031BFB
:100E70008B0280E48B02D210E5157038200E03023D
:100E80000EFE75822E120C2D80743010278A03EB13
:100E900030E71FC3E464808515F063F08095F0505F
:100EA0000C758230C003120C2DD00315150B8B026C
:100EB00080DD8B0230100EC3E464808515F063F092
:100EC0008095F05021E5172455F886038B82C002E7
:100ED000120C2DD00230100EE5172455F88603BBF6
:100EE0002E02800215151514C3E464808515F06385
:100EF000F08095F040032010050517020E46C3E46C
:100F000064808515F063F08095F0500A7582301288
:100F10000C2D151580E830070FAA141514EA600887
:100F2000758220120C2D80F122E5157003300E0D14
:100F300074072515FAE514C39AF5148006E5142400
:100F4000FAF51475170078558602BA2B0F20090C94
:100F500078557620200A057517010514200719AA6F
:100F600014C3E464808AF063F08095F0500A7582BF
:100F700020120C2D151480E7C210E5172455F886B1
:100F800002BA00028069BA451F3003027665C3E4E5
:100F900064808515F063F08095F0500A75823012F8
:100FA0000C2D151580E8D210C3E5179402E433FA2E
:100FB0007014EA700EC3E464808515F063F08095C8
:100FC000F04003301016E5172455F886028A821285
:100FD0000C2DE51724FD50121515800E7402B5175F
:100FE00009300E0675822E120C2D0517020F7A306D
:100FF0000719AA14C3E464808AF063F08095F05066
:101000000A758220120C2D151480E72285820A852C
:10101000830BE4F511F512AA18AB19AC1A8A828B6E
:10102000838CF012064BFD74012AF518E43BF51988
:101030008C1AEDFA70030215B2BA2502800302156C
:10104000AAC207C208C209C20AC20BC20CC20DC2A0
:101050000EC204C205C2067513007514007515FF93
:10106000AB18AC19AD1A8B828C838DF012064BFA3B
:10107000A3AB82AC838B188C198D1ABA25078A8290
:10108000120C2D80928A06BE3000402E8A06EE2475
:10109000C6402774FFB51513E51475F00AA4FEEADF
:1010A00024D02EF51470BFD20880BBE51575F00A68
:1010B000A4FEEA24D02EF51580ACBA2E0A74FFB532
:1010C00015A4751500809F8A06BE6100400E8A0631
:1010D000EE248540075302DFD2038002C203BA2008
:1010E000028075BA2303021167BA2A0302116CBA8F
:1010F0002B02805FBA2D028055BA4202805FBA434C
:10110000030211B1BA44030212ECBA4503021306FA
:10111000BA4603021302BA470302130ABA4903028A
:1011200012ECBA4C02803BBA4E0302130EBA4F03C4
:101130000212F3BA5003021285BA53030211D5BA50
:1011400055030212F8BA58030212FD021338D207EF
:10115000021066D209021066D20A021066D20C0290
:101160001066D20D021066D20E02106674FFB5151D
:1011700020300C0BE51B14F8881B8614021066E562
:101180001B24FEF8881B8606088607188E1402109A
:1011900066300C0BE51B14F8881B8615021066E5FB
:1011A0001B24FEF8881B8606088607188E15021079
:1011B00066300C0AE51B14F8881B8602800FE51BBD
:1011C00024FEF8881B8603088604188B028A821284
:1011D0000C2D02133DE51B24FDF8881B86030886B1
:1011E0000408860518188B0C8C0D8D0E8B828C8351
:1011F0008DF012179EAB82AC838B1674FFB515036E
:1012000085161520071DC3E51695145016E514C361
:101210009516F514AB141514EB6008758220120CAA
:101220002D80F1850C82850D83850EF012064BFB17
:10123000FA6029AB151515C3E464808BF063F08068
:1012400095F050188A82120C2DAB0CAC0DAD0E0B24
:10125000BB00010C8B0C8C0D8D0E80C72007030288
:10126000133DC3E5169514400302133DE514C395E1
:1012700016F514AB141514EB700302133D758220A0
:10128000120C2D80EEE51B24FDF8881B86030886D2
:101290000408860518188B0C8C0D8D0EE50EFB309E
:1012A000E7047A438013EB546060047A50800AEBC1
:1012B00030E6047A4980027A588A82C002120C2DE4
:1012C00075823A120C2D758230120C2D75827812AF
:1012D0000C2DD002BA4902800BBA50028006850D4F
:1012E00082120C60850C82120C608051D20B751337
:1012F0000A804A751308804575130A8040751310DB
:10130000803BD2048037D2058033D206802FE51B84
:1013100024FDF8881B860308860408860518188BA8
:101320000C8C0D8D0E8B828C838DF0E5111209C90A
:10133000A3E5121209C980058A82120C2D20040629
:10134000200503300670E51B24FCF8881B86030883
:1013500086040886050886061818188B0C8C0D8DD7
:101360000E8E0FE50CE50DE50EE50F8B828C838D5F
:10137000F0EE12167F74FFB51503751506300627BB
:10138000747F550FFB8B10E510EB2BFB8B10E50EDC
:1013900030E70674014510F510E510246840067426
:1013A0009925104002D205300506120F29021017A8
:1013B000120CB6021017E51370030210177B5A3097
:1013C0000C2BE51B14F8881BE6FC3395E0FDFEFFB3
:1013D0008C0C8D0D8E0E8F0F200B5EAC0C7D007E65
:1013E000007F008C0C8D0D8E0E8F0F804C300D1FEA
:1013F000E51B24FCF8881B86040886050886060879
:1014000086071818188C0C8D0D8E0E8F0F802AE50C
:101410001B24FEF8881B860408860518ED3395E02A
:10142000FEFF8C0C8D0D8E0E8F0F200B0CAC0CADB7
:101430000D7E007F008E0E8F0F300E43E50C450DA4
:10144000450E450F60397408B5130C758230C00322
:10145000120C2DD00380287410B51323758230C070
:1014600003120C2DD00330030C758278C003120CCC
:101470002DD003800A758258C003120C2DD0033082
:101480000B25AC0CAD0DAE0EE50FFF30E717C3E436
:101490009CFCE49DFDE49EFEE49FFF8C0C8D0D8E74
:1014A0000E8F0F8002C20B751600D20F8B007510C5
:1014B00000C000120C77D000200F0DE510C4FCE630
:1014C000FD4CF61888038002A6100516B20FE50C35
:1014D000450D450E450F70D68803E514700375144D
:1014E0000120081A200717E51604FCC39514500EB6
:1014F000758220C003120C2DD003151480E9300B27
:101500000E75822DC003120C2DD00315148024E516
:1015100016602030090E75822BC003120C2DD003EB
:101520001514800F300A0C758220C003120C2DD0C8
:1015300003151420071EAC141514C3E5169C502780
:101540003008047C3080027C208C82C003120C2D79
:10155000D00380E2C3E51695145009E514C395162F
:10156000F51480037514008B00AB161516EB602282
:10157000B20F200F0A08E6C4540FFB8B10800786B9
:1015800003740F5BF510851082C000120C47D00069
:1015900080D7200703021017AB141514EB70030259
:1015A0001017758220120C2D80EE8A82120C2D02EB
:1015B000101785118285128322AA82BA0A0810990F
:1015C0000280FB75990D10990280FB8A99227F9EFB
:1015D0001217C630D103020B38C3EF95825009743D
:1015E000FFF5F0F583F58222790012160F89828AC1
:1015F000838BF0EC22E582C583F582A2D133A2D59C
:1016000092D11392D5ECCFFCEBCEFBEACDFA22605F
:1016100040F82582500274FFF582E824F8501ECC71
:10162000CBCAF9E4CC24F85014CBCAF9E4CB24F8A3
:10163000500BCAF9E4CA24F8500379002224086048
:1016400010F8C3EC13FCEB13FBEA13FAE913F9D817
:10165000F122FCABF0AA83A982749EF582C2D1EC80
:1016600030E716D2D1E9F42401F9EAF43400FAEBB8
:10167000F43400FBECF43400FC120B66020B17C0D0
:10168000E0F84582458345F07009F5F0FBFCFDFE6E
:1016900002174DE823A2F792E0F8A982AA83D2F7B5
:1016A000ABF07C007E07C3749798404074FF2EFE19
:1016B000740A89F0A4F985F082740A8AF0A4FA8584
:1016C000F083740A8BF0A4FB740529F9EA3582FAD9
:1016D000EB3583FB740035F0FCC3EC13FCEB13FB20
:1016E000EA13FAE913F908EC70EF80BAE8C3947FC3
:1016F000F88B838EF0E4FBFCFDFEFF08C3E933F9B1
:10170000EA33FAE58333F583EB3BD4FBEC3CD4FCC2
:10171000ED3DD4FDEE3ED4FEEF3FD4FF602D05F04D
:1017200074052BD4FBE43CD4FCE43DD4FDE43ED46E
:10173000FEE43FD4FF758204C3EF13FFEE13FEED0A
:1017400013FDEC13FCEB13FBD582EDD8AF7855D02D
:10175000E020E704762B8002762D087906E7C45452
:101760000F4430F608B90603762E08E7540F4430CC
:10177000F60819B902E7764508E5F020E704762B6C
:101780008004762DF4040875F00A844430F608E5E8
:10179000F04430F608E4F690005575F04022AA8235
:1017A000AB83ACF07D007E008A828B838CF01206C6
:1017B0004BFFA3AA82AB83EF60070DBD00EA0E804A
:1017C000E78D828E8322AA82AB83A2F73392D16007
:1017D00002D2F7F582ACF022000000000000000009
:00000001FF
