:100000000200037581571200F1E582600302006F60
:10001000780079007A007B007C007D00EC4D601C4C
:1000200088828983E493A3A882A9838A828B83F040
:10003000A3AA82AB831CBCFFE31D80E07582007520
:1000400083007C007D00EC4D600AE4F0A31CBCFF43
:10005000F51D80F27582007583007C007D00EC4DFB
:10006000600AE4F0A31CBCFFF51D80F21200F01240
:10007000045980FE436F6D6D616E643A20257300F4
:100080000D0A4A44592D343020746573740D0A00EA
:1000900041542B44564944323338350D0A004154FB
:1000A0002B5645520D0A0041542B424155440D0A2E
:1000B0000041542B524649440D0A0041542B4456EA
:1000C00049440D0A0041542B5246430D0A00415445
:1000D0002B504F57450D0A0041542B434C53530DA1
:1000E0000A0025302E34662025302E34660D0A0095
:1000F0002275A7007597DE7597AD75FF8075EF06C1
:1001000075A71075C12075A70075A90075A900E530
:10011000A930E7FB75A90375A903E5A930E7FB43FF
:10012000A41143A60175E10175E20075E3417598DC
:1001300010758DE6858D8B53890F438920D28ED221
:10014000997582002275A700C2EF75B28075BC2038
:1001500075B91E75E80075DF3F75B300D2EF225305
:1001600089F0438901C28C22AA82438E407592B8DD
:100170007593FF8592948593957591047B00C3EBED
:100180009A500BE59130E7FB53917F0B80F075910E
:100190000022AA82AB837C007D00C3EC9AED9B50C9
:1001A0002B7E00BE0400501D7582FAC002C003C041
:1001B00004C005C006120168D006D005D004D003E3
:1001C000D0020E80DE0CBC00D10D80CE22AA82852A
:1001D0001AF005F07401800225E0D5F0FBFB75A74D
:1001E00020BA0002800ABA0102800FBA021E8014EF
:1001F000EBF4FA52F1EB42D48012EBF4FA52F2EB48
:1002000042D58008EBF4FA52F3EB42CC75A70022FA
:10021000C2EDD2EC30EDFD85BD8285BE83228582A4
:10022000BBC2EDD2EC30EDFD85BD8285BE832212CE
:10023000021E1205BBAA82AB83ACF0FDC002C00354
:10024000C004C00590000075F0A074401205C7AA54
:1002500082AB83ACF0FDE58124FCF581E4C0E07461
:10026000FCC0E0747FC0E07446C0E08A828B838C5F
:10027000F0ED12074EAA82AB83ACF0FDE58124FCC1
:10028000F5818A828B838CF0ED22A281E433F582A2
:1002900002022FAA82AB83ACF0FD75A72075930CE8
:1002A00075C8107594008A1A8B1B8C1C8D1D90A22A
:1002B0000075F04A7404120556AA82AB83ACF0FDB7
:1002C000751A18E4F51BF51CF51D8A828B838CF0DA
:1002D000ED120556AA82AB83ACF0FDE4C39AFAE4B2
:1002E0009BFB74019CE49D8A958B96D2C9439440F4
:1002F00075A70022AA8275A72010C90280FB8A92E6
:1003000075A70022AA82AB83ACF08A828B838CF023
:1003100012053AFD60188D82C002C003C0041202AB
:10032000F4D004D003D0020ABA00DF0B80DC2275BF
:10033000A72010C80280FB53C83F85928275A70092
:100340002275A7207A007B0020C82675A700758239
:1003500014C002C003120168D003D00275A7200A9E
:10036000BA00010BBAA8E1BB61DE75A70075820A6D
:1003700022C2C853C83F85928275A70022AA82ABC9
:1003800083ACF0C002C003C004120341AD82D004AC
:10039000D003D002BD0A0A8A828B838CF0E4020665
:1003A000A08A828B838CF0ED1206A0A3AA82AB8375
:1003B00080D175A720A2C875A70022AA82AB837C32
:1003C000007D00C3EC9AED9B50477E00BE040050B8
:1003D00039C002C003C004C005C0061203B2E43332
:1003E000D006D005D004D003D0026001227582FA75
:1003F000C002C003C004C005C006120168D006D008
:1004000005D004D003D0020E80C20CBC00B50D8014
:10041000B222AA82AB83ACF0C002C003C004C00207
:10042000C003C0047474C0E07400C0E07480C0E015
:1004300012067FE58124FAF581C2A0900005120121
:1004400092D004D003D0028A828B838CF0120304F2
:1004500090000A120192D2A0229001F4120192742B
:1004600080C0E07400C0E07480C0E012067F158197
:1004700015811581902580E4F5F0120293751A011B
:100480007582021201CD751A027582021201CD1217
:10049000014590009075F08012041290009E75F056
:1004A000801204129000A775F0801204129000B11F
:1004B00075F0801204129000BB75F0801204129047
:1004C00000C575F0801204129000CE75F080120401
:1004D000129000D875F08012041275820E12022F4D
:1004E00085820985830A85F00BF50C758208120256
:1004F0002FAE82AF83AAF0FBC006C007C002C003C4
:10050000C009C00AC00BC00C74E2C0E07400C0E0B7
:100510007480C0E07434C0E07400C0E07440C0E097
:10052000120708E58124F2F58190003475F040123D
:1005300003049000641203BB80A020F71430F6146B
:100540008883A88220F507E6A88375830022E280CD
:10055000F7E49322E022FB7A20E4FCFDFEFFE58233
:100560002582F582E58333F583E5F033F5F0EB334F
:10057000FB4017DAE98042E5822582F582E5833384
:10058000F583E5F033F5F0EB33FBEC33FCED33FDB5
:10059000EE33FEEF33FFEC951AED951BEE951CEF55
:1005A000951D4013EC951AFCED951BFDEE951CFE78
:1005B000EF951DFF438201DABEEB22E4AC83AB82F0
:1005C000FAF9748E020876120902BC00030208A12F
:1005D000EF60FA30D502B2D1E583B4FF030208B769
:1005E000E582B4FF030208B7258340072482400B4D
:1005F0000208A124831450030208B7F582EA8DF0A3
:10060000A4A8F0EA8EF0A428F8E435F0F9EB8DF018
:10061000A428E935F0F9E433CA8FF0A429F9EA35C2
:10062000F0FAEBF88EF0A429F9EA35F0FAE433FB9E
:10063000EC8DF0A429F9EA35F0FAE43BFBE88FF001
:10064000A42AFAEB35F0FBE433CCFD8EF0A42AFAB1
:10065000EB35F0FBE43CFCED8FF0A42BFBEC35F02C
:10066000FC20E7031208CF0208800212BC8582300A
:1006700085833185F03285193390066A020D0FC0EB
:1006800008858108E50824FBF533E50824FBF88696
:100690003008863108863290066A120D0FD0082283
:1006A00020F71030F6118883A88220F507F6A8837A
:1006B00075830022F280F7F022AA82AB12AC13AD50
:1006C000148B828C838DF0EA1206A00512E4B51219
:1006D0000205132285821285831385F01485153057
:1006E0008516318517328518339006B9120D0FAA79
:1006F00082AB83AC12AD13AE148C828D838EF0E48A
:100700001206A08A828B8322C008858108E508240E
:10071000F8F533E50824FBF88612088613088614DA
:10072000E50824F8F886300886310886329006B944
:10073000120D0FAA82AB83AC12AD13AE148C828D56
:10074000838EF0E41206A08A828B83D008221209DD
:100750000230D502B2D1BF0009BC00030208C402B6
:1007600008B7BC00030208A1E583B4FF0BE582B41F
:10077000FF030208C40208A1E582B4FF030208B720
:10078000C395835007247F400B0208A12480145096
:10079000030208B7C0E0E4CCCBCAF98D1A8E1B8FD8
:1007A0001CEF54F0C4F51D758306851DF0EB84F530
:1007B00082E9C4F9EAC4FAEBC4FBEC540FC4780331
:1007C000D6FC18EBD6FB18EAD6FA8582F0EDA4A881
:1007D000F0FD8582F0EEA428FEE435F0F88582F085
:1007E000EFA428FFE435F0F8E99DF9EA9EFAEB9FC3
:1007F000FBEC98FCAD1AAE1BAF1C30E7101582E97C
:100800002DF9EA3EFAEB3FFBE43CFC80EDC082D5DB
:100810008398C3E933F9EA33FAEB33FBEC33FCC3D7
:10082000E99DEA9EEB9FEC9400B3E413F9D002D06B
:10083000E0C44AFAD003D0E0C44BFBD004D0E0F5CA
:10084000F0540FC44CFCD082158230F40FD3EC135B
:10085000FCEB13FBEA13FAE913F90582E930E70A26
:1008600074012AFAE43BFBE43CFC020898FCABF080
:10087000AA83A982749EC2D1F5821208CF02088091
:10088000B98003EA13B34010EA2401FAE43BFBE425
:100890003CFC50047C800582BC000EBB000BBA00FF
:1008A00008E4F5F0F583F58222A2D1E582138CF0FD
:1008B00092F78B838A8222E4F583F58275F080F4C7
:1008C000A2D11322E4F583F58275F0C0747F2278FB
:1008D00004EC7011E58224F8500AF582E4C9CACB11
:1008E000FCD8EF22EC7820058220E713D582012284
:1008F000C3E933F9EA33FAEB33FBEC33FCD8EA15FE
:100900008222AA82AB83A2F73392D16002D2F7F59A
:1009100082ACF0E58124F9F8E6FD08E6FE0886F0F1
:1009200008E6A2F73392D56002D2F7F583AFF02242
:10093000AA827441C0E07409C0E0C022C0238A8248
:10094000220529E4B52902052A22AA8274302AFA4E
:1009500024C6500A74072AFA3000034302208A8210
:10096000020930E582FAC4540FF582C00212094A26
:10097000D002740F5AF58202094AAA24AB25AC268C
:10098000AD27AE28752F20EE2EFEED235401FF4239
:1009900006EA2AFAEB33FBEC33FCED33FDC3EE95AC
:1009A0002B4008EEC3952BFE430201D52FD98A2494
:1009B0008B258C268D278E28227854E624D075F03E
:1009C0000AA4FA7855E624D02AFA78538603BB2D78
:1009D00004C3E49AFA752B01C3E464808AF063F0DF
:1009E0008095F05029752F038A0374F6252F401C3B
:1009F000052BE52F142448F8E52F2448F98704A691
:100A000004772E1BEBFA6004052F80DE8B02EA30A0
:100A1000E70D78498603784AA6037849762E0AE5D9
:100A20002D600AE52D04FB252BF52B8005300B02EC
:100A3000052B78488603E4BB2D0104FB70062006D5
:100A400003300702052B300403020B00300557EB7F
:100A5000600C75822DC002120930D002801C300655
:100A60000C75822BC002120930D002800D30070AAB
:100A7000758220C002120930D00278498604BC2E4B
:100A80000C758230C002120930D002152CAC2C1526
:100A90002CC3E52B9C4003020B44758230C002122C
:100AA0000930D00280E7AC2C152CC3E52B9C500CF0
:100AB000758220C002120930D00280EA784886048C
:100AC000BC2D0C75822DC002120930D002801C3062
:100AD000060C75822BC002120930D002800D30073F
:100AE0000A758220C002120930D00278498604BCFF
:100AF0002E52758230C002120930D002152C80446B
:100B0000EB600E75822DC002120930D002152C80C8
:100B10002030060E75822BC002120930D002152C2F
:100B2000800F30070C758220C002120930D00215E8
:100B30002C78498603BB2E0C758230C00212093016
:100B4000D002152C752F01C20DE52F2448F886031D
:100B5000BB4503020C01BB2E348A03C3E464808BC3
:100B6000F063F08095F0500F758230C003120930A9
:100B7000D0031B8B0280E48B02D20DE52D70382050
:100B80000B03020C0175822E1209308074300D2780
:100B90008A03EB30E71FC3E46480852DF063F080A7
:100BA00095F0500C758230C003120930D003152D1A
:100BB0000B8B0280DD8B02300D0EC3E46480852D2B
:100BC000F063F08095F05021E52F2448F886038BE0
:100BD00082C002120930D002300D0EE52F2448F8F1
:100BE0008603BB2E028002152D152CC3E46480857C
:100BF0002DF063F08095F04003200D05052F020BCA
:100C000049C3E46480852DF063F08095F0500A7547
:100C10008230120930152D80E830040FAA2C152CD3
:100C2000EA600875822012093080F122E52D7003F8
:100C3000300B0D7407252DFAE52CC39AF52C800690
:100C4000E52C24FAF52C752F0078488602BA2B0F74
:100C500020060C78487620200705752F01052C20EA
:100C60000419AA2CC3E464808AF063F08095F050E4
:100C70000A758220120930152C80E7C20DE52F2459
:100C800048F88602BA00028069BA451F3000027631
:100C900065C3E46480852DF063F08095F0500A759B
:100CA0008230120930152D80E8D20DC3E52F940251
:100CB000E433FA7014EA700EC3E46480852DF063A7
:100CC000F08095F04003300D16E52F2448F8860299
:100CD0008A82120930E52F24FD5012152D800E74E2
:100CE00002B52F09300B0675822E120930052F022E
:100CF0000C7D300419AA2CC3E464808AF063F08070
:100D000095F0500A758220120930152C80E7228553
:100D10008222858323E4F529F52AAA30AB31AC324F
:100D20008A828B838CF012053AFD74012AF530E437
:100D30003BF5318C32EDFA70030212B5BA25028010
:100D4000030212ADC204C205C206C207C208C2092C
:100D5000C20AC20BC201C202C203752B00752C006D
:100D6000752DFFAB30AC31AD328B828C838DF012A0
:100D7000053AFAA3AB82AC838B308C318D32BA2525
:100D8000078A8212093080928A06BE3000402E8A7D
:100D900006EE24C6402774FFB52D13E52C75F00A26
:100DA000A4FEEA24D02EF52C70BFD20580BBE52D21
:100DB00075F00AA4FEEA24D02EF52D80ACBA2E0AD6
:100DC00074FFB52DA4752D00809F8A06BE6100407A
:100DD0000E8A06EE248540075302DFD2008002C24D
:100DE00000BA20028075BA2303020E6ABA2A0302EF
:100DF0000E6FBA2B02805FBA2D028055BA42028074
:100E00005FBA4303020EB4BA4403020FEFBA4503BC
:100E1000021009BA4603021005BA470302100DBAC0
:100E20004903020FEFBA4C02803BBA4E0302101185
:100E3000BA4F03020FF6BA5003020F88BA530302E7
:100E40000ED8BA5503020FFBBA5803021000021065
:100E50003BD204020D69D206020D69D207020D6968
:100E6000D209020D69D20A020D69D20B020D697412
:100E7000FFB52D2030090BE53314F88833862C029A
:100E80000D69E53324FEF888338606088607188E38
:100E90002C020D6930090BE53314F88833862D02D6
:100EA0000D69E53324FEF888338606088607188E18
:100EB0002D020D6930090AE53314F8883386028063
:100EC0000FE53324FEF888338603088604188B0266
:100ED0008A82120930021040E53324FDF8883386F7
:100EE0000308860408860518188B248C258D268B0C
:100EF000828C838DF01213F0AB82AC838B2E74FF47
:100F0000B52D03852E2D20041DC3E52E952C5016DE
:100F1000E52CC3952EF52CAB2C152CEB60087582B7
:100F20002012093080F18524828525838526F012E0
:100F3000053AFBFA6029AB2D152DC3E464808BF0D4
:100F400063F08095F050188A82120930AB24AC25EA
:100F5000AD260BBB00010C8B248C258D2680C72071
:100F60000403021040C3E52E952C4003021040E517
:100F70002CC3952EF52CAB2C152CEB7003021040D6
:100F800075822012093080EEE53324FDF88833861F
:100F90000308860408860518188B248C258D26E501
:100FA00026FB30E7047A438013EB546060047A50E8
:100FB000800AEB30E6047A4980027A588A82C002BD
:100FC00012093075823A1209307582301209307573
:100FD0008278120930D002BA4902800BBA500280DE
:100FE000068525821209638524821209638051D205
:100FF00008752B0A804A752B088045752B0A80409E
:10100000752B10803BD2018037D2028033D203800F
:101010002FE53324FDF88833860308860408860507
:1010200018188B248C258D268B828C838DF0E529D6
:101030001206A0A3E52A1206A080058A82120930B2
:10104000200106200203300370E53324FCF88833C6
:1010500086030886040886050886061818188B2457
:101060008C258D268E27E524E525E526E5278B8230
:101070008C838DF0EE1212D174FFB52D03752D0601
:10108000300327747F5527FB8B28E528EB2BFB8B40
:1010900028E52630E70674014528F528E528246868
:1010A0004006749925284002D202300206120C2C08
:1010B000020D1A1209B9020D1AE52B7003020D1A5E
:1010C0007B4D30092BE53314F88833E6FC3395E08B
:1010D000FDFEFF8C248D258E268F2720085EAC24F4
:1010E0007D007E007F008C248D258E268F27804CEE
:1010F000300A1FE53324FCF8883386040886050887
:1011000086060886071818188C248D258E268F27AA
:10111000802AE53324FEF88833860408860518ED16
:101120003395E0FEFF8C248D258E268F2720080C1A
:10113000AC24AD257E007F008E268F27300B43E543
:101140002445254526452760397408B52B0C758242
:1011500030C003120930D00380287410B52B2375DA
:101160008230C003120930D00330000C758278C081
:1011700003120930D003800A758258C00312093067
:10118000D003300825AC24AD25AE26E527FF30E797
:1011900017C3E49CFCE49DFDE49EFEE49FFF8C24C9
:1011A0008D258E268F278002C208752E00D20C8BCB
:1011B00000752800C00012097AD000200C0DE52827
:1011C000C4FCE6FD4CF61888038002A628052EB262
:1011D0000CE52445254526452770D68803E52C7067
:1011E00003752C0120051A200417E52E04FCC39575
:1011F0002C500E758220C003120930D003152C80AC
:10120000E930080E75822DC003120930D003152C69
:101210008024E52E602030060E75822BC003120953
:1012200030D003152C800F30070C758220C00312BC
:101230000930D003152C20041EAC2C152CC3E52E30
:101240009C50273005047C3080027C208C82C003B7
:10125000120930D00380E2C3E52E952C5009E52C0D
:10126000C3952EF52C8003752C008B00AB2E152E0C
:10127000EB6022B20C200C0A08E6C4540FFB8B284A
:1012800080078603740F5BF528852882C000120949
:101290004AD00080D7200403020D1AAB2C152CEB8A
:1012A0007003020D1A75822012093080EE8A8212B4
:1012B0000930020D1A852982852A8322AA82BA0A58
:1012C0000810990280FB75990D10990280FB8A998C
:1012D00022C0E0F84582458345F07009F5F0FBFC3B
:1012E000FDFE02139FE823A2F792E0F8A982AA83E9
:1012F000D2F7ABF07C007E07C3749798404074FF30
:101300002EFE740A89F0A4F985F082740A8AF0A48A
:10131000FA85F083740A8BF0A4FB740529F9EA3589
:1013200082FAEB3583FB740035F0FCC3EC13FCEB65
:1013300013FBEA13FAE913F908EC70EF80BAE8C37B
:10134000947FF88B838EF0E4FBFCFDFEFF08C3E97D
:1013500033F9EA33FAE58333F583EB3BD4FBEC3C1A
:10136000D4FCED3DD4FDEE3ED4FEEF3FD4FF602D26
:1013700005F074052BD4FBE43CD4FCE43DD4FDE43F
:101380003ED4FEE43FD4FF758204C3EF13FFEE1397
:10139000FEED13FDEC13FCEB13FBD582EDD8AF781B
:1013A00048D0E020E704762B8002762D087906E706
:1013B000C4540F4430F608B90603762E08E7540FDC
:1013C0004430F60819B902E7764508E5F020E7044D
:1013D000762B8004762DF4040875F00A844430F6E8
:1013E00008E5F04430F608E4F690004875F0402235
:1013F000AA82AB83ACF07D007E008A828B838CF066
:1014000012053AFFA3AA82AB83EF60070DBD00EA85
:101410000E80E78D828E8322000000000000000015
:00000001FF
