:10000000020003758155120106E582600302006F4C
:10001000780079007A007B007C007D00EC4D601C4C
:1000200088828983E493A3A882A9838A828B83F040
:10003000A3AA82AB831CBCFFE31D80E07582007520
:1000400083007C007D00EC4D600AE4F0A31CBCFF43
:10005000F51D80F27582007583007C007D00EC4DFB
:10006000600AE4F0A31CBCFFF51D80F2120105122A
:1000700004DA80FE436F6D6D616E643A2025730073
:100080000D0A4A44592D343020746573740D0A00EA
:1000900041542B44564944323338350D0A004154FB
:1000A0002B5645520D0A0041542B424155440D0A2E
:1000B0000041542B524649440D0A0041542B4456EA
:1000C00049440D0A0041542B5246430D0A00415445
:1000D0002B504F57450D0A0041542B434C53530DA1
:1000E0000A0025302A642025302A642025302A641D
:1000F0002025302A642025640A003C4E4F20464CBF
:100100004F41543E002275A7007597DE7597AD7577
:10011000FF8075EF0675A71075C12075A70075A93A
:100120000075A900E5A930E7FB75A90375A903E5EA
:10013000A930E7FB43A41143A60175E10175E20074
:1001400075E341759810758DE6858D8B53890F4346
:100150008920D28ED2997582002275A700C2EF75D0
:10016000B28075BC2075B91E75E80075DF3F75B3A8
:1001700000D2EF225389F0438901C28C22AA824324
:100180008E407592B87593FF85929485939575917D
:10019000047B00C3EB9A500BE59130E7FB53917F52
:1001A0000B80F075910022AA82AB837C007D00C396
:1001B000EC9AED9B502B7E00BE0400501D7582FA18
:1001C000C002C003C004C005C00612017DD006D025
:1001D00005D004D003D0020E80DE0CBC00D10D800F
:1001E000CE22AA828538F005F07401800225E0D580
:1001F000F0FBFB75A720BA0002800ABA0102800F4B
:10020000BA021E8014EBF4FA52F1EB42D48012EBE6
:10021000F4FA52F2EB42D58008EBF4FA52F3EB42D7
:10022000CC75A70022C2EDD2EC30EDFD85BD8285F4
:10023000BE83228582BBC2EDD2EC30EDFD85BD824E
:1002400085BE8322120233120781AA82AB83ACF0EF
:10025000FDC002C003C004C00590000075F0A0748A
:10026000401207C1AA82AB83ACF0FDE58124FCF506
:1002700081E4C0E074FCC0E0747FC0E07446C0E07C
:100280008A828B838CF0ED120948AA82AB83ACF092
:10029000FDE58124FCF5818A828B838CF0ED2212AE
:1002A0000233AA82AB83C3EA94CCEB940C5009903E
:1002B000000075F080743F228A828B83120781AA26
:1002C00082AB83ACF0FDC002C003C004C005900047
:1002D0000075F0A074401207C1AA82AB83ACF0FD98
:1002E000E58124FCF581E4C0E074FCC0E0747FC0CB
:1002F000E07446C0E08A828B838CF0ED120948AA34
:1003000082AB83ACF0FDE58124FCF5818A828B838E
:100310008CF0ED22AA82AB83ACF0FD75A72075931B
:100320000C75C8107594008A388B398C3A8D3B90C7
:10033000A20075F04A740412071CAA82AB83ACF0C9
:10034000FD753818E4F539F53AF53B8A828B838CD4
:10035000F0ED12071CAA82AB83ACF0FDE4C39AFA5D
:10036000E49BFB74019CE49D8A958B96D2C94394CF
:100370004075A70022AA8275A72010C90280FB8AB7
:100380009275A70022AA82AB83ACF08A828B838C01
:10039000F0120700FD60188D82C002C003C0041275
:1003A0000375D004D003D0020ABA00DF0B80DC2230
:1003B00075A72010C80280FB53C83F85928275A79D
:1003C000002275A7207A007B0020C82675A700753B
:1003D0008214C002C00312017DD003D00275A72091
:1003E0000ABA00010BBAA8E1BB61DE75A7007582ED
:1003F0000A22C2C853C83F85928275A70022AA82EA
:10040000AB83ACF0C002C003C0041203C2AD82D003
:1004100004D003D002BD0A0A8A828B838CF0E402E6
:10042000089A8A828B838CF0ED12089AA3AA82AB79
:100430008380D175A720A2C875A70022AA82AB83AA
:100440007C007D00C3EC9AED9B50477E00BE04000B
:100450005039C002C003C004C005C006120433E412
:1004600033D006D005D004D003D0026001227582BB
:10047000FAC002C003C004C005C00612017DD00648
:10048000D005D004D003D0020E80C20CBC00B50D44
:1004900080B222AA82AB83ACF0C002C003C004C009
:1004A00002C003C0047474C0E07400C0E07480C073
:1004B000E0120879E58124FAF581C2A090000512C6
:1004C00001A7D004D003D0028A828B838CF0120360
:1004D0008590000A1201A7D2A022E4F515F5169026
:1004E00001F41201A77480C0E07400C0E07480C001
:1004F000E0120879158115811581902580E4F5F0C9
:100500001203147538027582021201E27538027501
:1005100082011201E27538037582021201E2753818
:10052000017582021201E212015A90009075F0806A
:1005300012049390009E75F0801204939000A775AA
:10054000F0801204939000B175F080120493900033
:10055000BB75F0801204939000C575F0801204936F
:100560009000CE75F0801204939000D875F0801240
:10057000049375820F12024485820985830A85F0EF
:100580000BF50C75820812024485820D85830E8559
:10059000F00FF51075820E120244858211858312C8
:1005A00085F013F514C009C00AC00BC00C90000000
:1005B00075F07A74441207C185820985830A85F033
:1005C0000BF50CE58124FCF581C00DC00EC00FC0F9
:1005D0001090000075F07A74441207C185820D8571
:1005E000830E85F00FF510E58124FCF581C011C064
:1005F00012C013C01490000075F07A74441207C141
:1006000085821185831285F013F514E58124FCF5AC
:100610008175821012029FAC82AD83AAF0FBC004E8
:10062000C005C002C00390000075F07A7444120740
:10063000C1AC82AD83AAF0FBE58124FCF581208466
:1006400006751501E4F5168C828D838AF0EB12078E
:100650008DAA82AB83850D82850E83850FF0E51010
:10066000C002C00312078DAC82AD83851182851252
:10067000838513F0E514C004C00512078D85821729
:10068000858318850982850A83850BF0E50C12079E
:100690008DAE82AF83D005D004D003D002C015C088
:1006A00016C002C0037404C0E0E4C0E0C004C0058A
:1006B0007404C0E0E4C0E0C017C0187404C0E0E4F3
:1006C000C0E0C006C0077404C0E0E4C0E074E2C04B
:1006D000E07400C0E07480C0E0743CC0E07400C00E
:1006E000E07440C0E0120902E58124E8F581900041
:1006F0003C75F04012038590001412043C02057210
:1007000020F71430F6148883A88220F507E6A88322
:1007100075830022E280F7E49322E022FB7A20E452
:10072000FCFDFEFFE5822582F582E58333F583E556
:10073000F033F5F0EB33FB4017DAE98042E5822530
:1007400082F582E58333F583E5F033F5F0EB33FB97
:10075000EC33FCED33FDEE33FEEF33FFEC9538ED7B
:100760009539EE953AEF953B4013EC9538FCED95B5
:1007700039FDEE953AFEEF953BFF438201DABEEB81
:1007800022E4AC83AB82FAF9748E020A70120A7A00
:10079000700AE582458345F0700122E430D112F4FD
:1007A000700BE5F0F47006E58330E70122908000DD
:1007B00022700AE5F07006E58320E70122907FFFB2
:1007C00022120B57BC0003020AF6EF60FA30D50282
:1007D000B2D1E583B4FF03020B0CE582B4FF030240
:1007E0000B0C258340072482400B020AF624831455
:1007F0005003020B0CF582EA8DF0A4A8F0EA8EF00B
:10080000A428F8E435F0F9EB8DF0A428E935F0F9E7
:10081000E433CA8FF0A429F9EA35F0FAEBF88EF048
:10082000A429F9EA35F0FAE433FBEC8DF0A429F9B8
:10083000EA35F0FAE43BFBE88FF0A42AFAEB35F056
:10084000FBE433CCFD8EF0A42AFAEB35F0FBE43C5C
:10085000FCED8FF0A42BFBEC35F0FC20E703120B32
:1008600024020AD50211A585823185833285F033B1
:10087000852234900864020C0EC008858108E508C2
:1008800024FBF534E50824FBF88631088632088617
:1008900033900864120C0ED0082220F71030F611A5
:1008A0008883A88220F507F6A88375830022F2804A
:1008B000F7F022AA82AB19AC1AAD1B8B828C838D08
:1008C000F0EA12089A0519E4B51902051A22858280
:1008D0001985831A85F01B851C31851D32851E33D1
:1008E000851F349008B3120C0EAA82AB83AC19ADED
:1008F0001AAE1B8C828D838EF0E412089A8A828B4A
:100900008322C008858108E50824F8F534E5082429
:10091000FBF8861908861A08861BE50824F8F8866D
:10092000310886320886339008B3120C0EAA82ABC7
:1009300083AC19AD1AAE1B8C828D838EF0E4120845
:100940009A8A828B83D00822120B5730D502B2D1FB
:10095000BF0009BC0003020B19020B0CBC00030210
:100960000AF6E583B4FF0BE582B4FF03020B19021C
:100970000AF6E582B4FF03020B0CC39583500724EB
:100980007F400B020AF62480145003020B0CC0E0D7
:10099000E4CCCBCAF98D388E398F3AEF54F0C4F5D8
:1009A0003B758306853BF0EB84F582E9C4F9EAC424
:1009B000FAEBC4FBEC540FC47803D6FC18EBD6FB5F
:1009C00018EAD6FA8582F0EDA4A8F0FD8582F0EE53
:1009D000A428FEE435F0F88582F0EFA428FFE43582
:1009E000F0F8E99DF9EA9EFAEB9FFBEC98FCAD3834
:1009F000AE39AF3A30E7101582E92DF9EA3EFAEB4D
:100A00003FFBE43CFC80EDC082D58398C3E933F919
:100A1000EA33FAEB33FBEC33FCC3E99DEA9EEB9F30
:100A2000EC9400B3E413F9D002D0E0C44AFAD00346
:100A3000D0E0C44BFBD004D0E0F5F0540FC44CFC24
:100A4000D082158230F40FD3EC13FCEB13FBEA13C6
:100A5000FAE913F90582E930E70A74012AFAE43B5E
:100A6000FBE43CFC020AEDFCABF0AA83A982749E75
:100A7000C2D1F582120B24020AD51211BAC3749E98
:100A80009582403979001211CC30D126E9F4240145
:100A9000F582EAF43400F583EBF43400F5F0ECF47D
:100AA0003400700AE582458345F0700122E430E7A6
:100AB0000F22EC20E71489828A838BF02230D10A3E
:100AC000E4F582F583F5F074802274FFF582F583F6
:100AD000F5F0747F22B98003EA13B34010EA2401D1
:100AE000FAE43BFBE43CFC50047C800582BC000E35
:100AF000BB000BBA0008E4F5F0F583F58222A2D121
:100B0000E582138CF092F78B838A8222E4F583F5D9
:100B10008275F080F4A2D11322E4F583F58275F09A
:100B2000C0747F227804EC7011E58224F8500AF535
:100B300082E4C9CACBFCD8EF22EC7820058220E7FA
:100B400013D5820122C3E933F9EA33FAEB33FBEC24
:100B500033FCD8EA158222AA82AB83A2F73392D162
:100B60006002D2F7F582ACF0E58124F9F8E6FD08E1
:100B7000E6FE0886F008E6A2F73392D56002D2F7C7
:100B8000F583AFF022AA827496C0E0740BC0E0C077
:100B900023C0248A8222052AE4B52A02052B22AA30
:100BA0008274302AFA24C6500A74072AFA300003E5
:100BB0004302208A82020B85E582FAC4540FF58233
:100BC000C002120B9FD002740F5AF582020B9FAA2B
:100BD00025AB26AC27AD28AE29753020EE2EFEEDD4
:100BE000235401FF4206EA2AFAEB33FBEC33FCED17
:100BF00033FDC3EE952C4008EEC3952CFE43020155
:100C0000D530D98A258B268C278D288E292285825E
:100C100023858324E4F52AF52BAA31AB32AC338A41
:100C2000828B838CF0120700FD74012AF531E43BBE
:100C3000F5328C33EDFA700302119EBA250280035F
:100C4000021196C204C205C206C207C208C209C286
:100C50000AC20BC201C202C203752C00752D0075B9
:100C60002EFFAB31AC32AD338B828C838DF012070B
:100C700000FAA3AB82AC838B318C328D33BA25075B
:100C80008A82120B8580928A06BE3000402E8A0628
:100C9000EE24C6402774FFB52E13E52D75F00AA487
:100CA000FEEA24D02EF52D70BFD20580BBE52E754F
:100CB000F00AA4FEEA24D02EF52E80ACBA2E0A74D7
:100CC000FFB52EA4752E00809F8A06BE6100400EDF
:100CD0008A06EE248540075302DFD2008002C2005C
:100CE000BA20028075BA2303020D69BA2A03020DE5
:100CF0006EBA2B02805FBA2D028055BA4202805F25
:100D0000BA4303020DB3BA4403020EEEBA4503021E
:100D10000F08BA4603020F04BA4703020F0CBA4980
:100D200003020EEEBA4C02803BBA4E03020F10BA19
:100D30004F03020EF5BA5003020E87BA5303020D99
:100D4000D7BA5503020EFABA5803020EFF020F3A41
:100D5000D204020C68D206020C68D207020C68D2D8
:100D600009020C68D20A020C68D20B020C6874FFEC
:100D7000B52E2030090BE53414F88834862D020C8A
:100D800068E53424FEF888348606088607188E2D18
:100D9000020C6830090BE53414F88834862E020CF6
:100DA00068E53424FEF888348606088607188E2EF7
:100DB000020C6830090AE53414F888348602800F82
:100DC000E53424FEF888348603088604188B028AEA
:100DD00082120B85020F3FE53424FDF88834860328
:100DE00008860408860518188B258C268D278B828B
:100DF0008C838DF012120FAB82AC838B2F74FFB5F6
:100E00002E03852F2E20041DC3E52F952D5016E5AA
:100E10002DC3952FF52DAB2D152DEB600875822078
:100E2000120B8580F18525828526838527F01207A0
:100E300000FBFA6029AB2E152EC3E464808BF063AF
:100E4000F08095F050188A82120B85AB25AC26AD48
:100E5000270BBB00010C8B258C268D2780C7200417
:100E600003020F3FC3E52F952D4003020F3FE52DF1
:100E7000C3952FF52DAB2D152DEB7003020F3F758C
:100E80008220120B8580EEE53424FDF88834860339
:100E900008860408860518188B258C268D27E527DB
:100EA000FB30E7047A438013EB546060047A50808F
:100EB0000AEB30E6047A4980027A588A82C002122C
:100EC0000B8575823A120B85758230120B857582FF
:100ED00078120B85D002BA4902800BBA5002800604
:100EE000852682120BB8852582120BB88051D20854
:100EF000752C0A804A752C088045752C0A8040752F
:100F00002C10803BD2018037D2028033D203802F55
:100F1000E53424FDF888348603088604088605181D
:100F2000188B258C268D278B828C838DF0E52A12D9
:100F3000089AA3E52B12089A80058A82120B852055
:100F4000010620020330035AE53424FCF888348675
:100F5000030886040886050886061818188B258C51
:100F6000268D278E287525FA7526007527808525FC
:100F70003585263685273774012535FEE43536FF5D
:100F8000AB378E258F268B2785358285368385372F
:100F9000F0120700FBFA7003020C198A82120B850B
:100FA00080CCE52C7003020C197B5530092BE534FD
:100FB00014F88834E6FC3395E0FDFEFF8C258D2681
:100FC0008E278F2820085EAC257D007E007F008C58
:100FD000258D268E278F28804C300A1FE53424FC6F
:100FE000F8883486040886050886060886071818D7
:100FF000188C258D268E278F28802AE53424FEF82C
:101000008834860408860518ED3395E0FEFF8C25AC
:101010008D268E278F2820080CAC25AD267E007FDC
:10102000008E278F28300B43E52545264527452888
:1010300060397408B52C0C758230C003120B85D052
:101040000380287410B52C23758230C003120B85E1
:10105000D00330000C758278C003120B85D003805A
:101060000A758258C003120B85D003300825AC25C1
:10107000AD26AE27E528FF30E717C3E49CFCE49DCE
:10108000FDE49EFEE49FFF8C258D268E278F288011
:1010900002C208752F00D20C8B00752900C0001207
:1010A0000BCFD000200C0DE529C4FCE6FD4CF61852
:1010B00088038002A629052FB20CE5254526452781
:1010C000452870D68803E52D7003752D0120051A7B
:1010D000200417E52F04FCC3952D500E758220C007
:1010E00003120B85D003152D80E930080E75822D73
:1010F000C003120B85D003152D8024E52F6020300E
:10110000060E75822BC003120B85D003152D800FA0
:1011100030070C758220C003120B85D003152D20DB
:10112000041EAC2D152DC3E52F9C50273005047CE3
:101130003080027C208C82C003120B85D00380E2B9
:10114000C3E52F952D5009E52DC3952FF52D80036F
:10115000752D008B00AB2F152FEB6022B20C200CED
:101160000A08E6C4540FFB8B2980078603740F5BC3
:10117000F529852982C000120B9FD00080D720045A
:1011800003020C19AB2D152DEB7003020C1975829F
:1011900020120B8580EE8A82120B85020C19852A9B
:1011A00082852B8322AA82BA0A0810990280FB75D5
:1011B000990D10990280FB8A9922AA82AB83A2F72B
:1011C0003392D16002D2F7F582ACF0226040F8256C
:1011D00082500274FFF582E824F8501ECCCBCAF985
:1011E000E4CC24F85014CBCAF9E4CB24F8500BCA51
:1011F000F9E4CA24F8500379002224086010F8C3E7
:10120000EC13FCEB13FBEA13FAE913F9D8F122AA69
:1012100082AB83ACF07D007E008A828B838CF012DF
:101220000700FFA3AA82AB83EF60070DBD00EA0EA3
:1012300080E78D828E832200000000000000000005
:00000001FF
