:10000000020003758116120096E582600302006FFC
:10001000780079007A007B007C007D00EC4D601C4C
:1000200088828983E493A3A882A9838A828B83F040
:10003000A3AA82AB831CBCFFE31D80E07582007520
:1000400083007C007D00EC4D600AE4F0A31CBCFF43
:10005000F51D80F27582007583007C007D00EC4DFB
:10006000600AE4F0A31CBCFFF51D80F212007412BC
:10007000025580FE750C00750D0022000000000086
:1000800000000000000000000000000201850000E8
:100090000000000201ED75A7007597DE7597AD436E
:1000A000FF8075EF0275A71075C12075A70075A9AF
:1000B0000075A900E5A930E7FB75A90375A903E55B
:1000C000A930E7FB43A60343A41075E10175E210D4
:1000D00075E340759810858E8E758DE6858D8B53F2
:1000E000890F438920D28ED29975A7107598007513
:1000F0000A90750BE875A4FF75A5FF43F304D29A27
:1001000075A71075C0007508907509E875D4FF755E
:10011000D5FF43F308D2C2D2AF75A7007582002283
:10012000AA82438E407592B87593FF859294859309
:10013000957591047B00C3EB9A500BE59130E7FB7A
:1001400053917F0B80F075910022AA82AB837C00D3
:100150007D00C3EC9AED9B502B7E00BE0400501D29
:100160007582FAC002C003C004C005C00612012097
:10017000D006D005D004D003D0020E80DE0CBC0027
:10018000D10D80CE22C0E0C002C003C004C005C0B3
:10019000D075D00075A710C29FAA0DBA00028005C5
:1001A000BA0132800FD29775A2A075A315750D0103
:1001B000050E802CC297AA0AAB0BE4FCFD74A0C309
:1001C0009AFA74159BFBE49CFCE49DFD8AA28BA328
:1001D000750D02800BC297850AA2850BA3750D00D1
:1001E000D0D0D005D004D003D002D0E032C0E0C0DF
:1001F00002C003C004C005C0D075D00075A710C2EE
:10020000C7AA0CBA00028005BA0132800FD2A075CD
:10021000D2A075D315750C01050E802CC2A0AA08BA
:10022000AB09E4FCFD74A0C39AFA74159BFBE49C33
:10023000FCE49DFD8AD28BD3750C02800BC2A08595
:1002400008D28509D3750C00D0D0D005D004D003D6
:10025000D002D0E0327A007B00D295750E0074CEC9
:10026000250E50FA7508907509E8750A90750BE827
:1002700030B7157508207509D1750A90750BE87AA5
:10028000007B00D2950203C820840FEA4B700B302C
:1002900084FD7A017B00C295801020840DEA4B60BA
:1002A000093084FD7A007B00D295A2B2E433FC7D54
:1002B00000A2B1E433FE7F00A2B0E433F87900EC91
:1002C0004D6032EE4F600E750F0075100075110015
:1002D0007512408062E849600E750F937510A9751C
:1002E00011EA75123F8050750F6D7510567511D556
:1002F00075123F8042EE4F6020E849600E750F0096
:100300007510007511C075123F802C750F93751014
:10031000A97511AA75123F801EE849600E750F6D10
:1003200075105675119575123F800C750F0075107C
:100330000075118075123FEA4B70030203BCC002C6
:10034000C003C00FC010C011C01290A00075F08C87
:1003500074471203D9AC82AD83AEF0FFE58124FC73
:10036000F581E4C0E0C0E07440C0E07441C0E08CBE
:10037000828D838EF0EF120492AC82AD83AEF0FFDB
:10038000E58124FCF581C004C005C006C0079000CB
:100390000075F080744712047CAC82AD83AEF0FF30
:1003A000E58124FCF5818C828D838EF0EF12048729
:1003B00085820A85830BD003D0028006750A90756A
:1003C0000BE87508907509E890000AC002C0031296
:1003D000014AD003D002020270120633BC000302AD
:1003E00005D2EF60FA30D502B2D1E583B4FF030243
:1003F00005E8E582B4FF030205E82583400724826F
:10040000400B0205D224831450030205E8F582EA6A
:100410008DF0A4A8F0EA8EF0A428F8E435F0F9EB0A
:100420008DF0A428E935F0F9E433CA8FF0A429F956
:10043000EA35F0FAEBF88EF0A429F9EA35F0FAE49F
:1004400033FBEC8DF0A429F9EA35F0FAE43BFBE844
:100450008FF0A42AFAEB35F0FBE433CCFD8EF0A448
:100460002AFAEB35F0FBE43CFCED8FF0A42BFBEC1F
:1004700035F0FC20E7031206000205B1A881181828
:10048000C6B2E7C60206617F8E1206BCF58385F010
:10049000822212063330D502B2D1BF0009BC00035C
:1004A0000205F50205E8BC00030205D2E583B4FFAE
:1004B0000BE582B4FF030205F50205D2E582B4FF25
:1004C000030205E8C395835007247F400B0205D241
:1004D00024801450030205E8C0E0E4CCCBCAF98DB7
:1004E000138E148F15EF54F0C4F516758306851618
:1004F000F0EB84F582E9C4F9EAC4FAEBC4FBEC54EE
:100500000FC47803D6FC18EBD6FB18EAD6FA85821E
:10051000F0EDA4A8F0FD8582F0EEA428FEE435F00D
:10052000F88582F0EFA428FFE435F0F8E99DF9EAB8
:100530009EFAEB9FFBEC98FCAD13AE14AF1530E7C1
:10054000101582E92DF9EA3EFAEB3FFBE43CFC8012
:10055000EDC082D58398C3E933F9EA33FAEB33FB74
:10056000EC33FCC3E99DEA9EEB9FEC9400B3E413EB
:10057000F9D002D0E0C44AFAD003D0E0C44BFBD09B
:1005800004D0E0F5F0540FC44CFCD082158230F456
:100590000FD3EC13FCEB13FBEA13FAE913F9058212
:1005A000E930E70A74012AFAE43BFBE43CFC02056B
:1005B000C9B98003EA13B34010EA2401FAE43BFB13
:1005C000E43CFC50047C800582BC000EBB000BBAEE
:1005D0000008E4F5F0F583F58222A2D1E582138CC0
:1005E000F092F78B838A8222E4F583F58275F0809E
:1005F000F4A2D11322E4F583F58275F0C0747F2252
:100600007804EC7011E58224F8500AF582E4C9CA36
:10061000CBFCD8EF22EC7820058220E713D58201AD
:1006200022C3E933F9EA33FAEB33FBEC33FCD8EAC3
:10063000158222AA82AB83A2F73392D16002D2F74D
:10064000F582ACF0E58124F9F8E6FD08E6FE0886BF
:10065000F008E6A2F73392D56002D2F7F583AFF047
:10066000221206337900E583B58202800D50031211
:1006700006E1E583C395821206FBE5D0C465D02070
:10068000E117EA2DFAEB3EFBEC3FFC500974011236
:1006900006FBEC4480FC0205B1C3EA9DFAEB9EFB2D
:1006A000EC9FFC500FC3E499F9E49AFAE49BFBE455
:1006B0009CFCB2D11206000205B17F9E12073E30AB
:1006C000D1030205D2C3EF9582500974FFF5F0F50E
:1006D00083F5822279001206FB89828A838BF0ECF3
:1006E00022E582C583F582A2D133A2D592D113929D
:1006F000D5ECCFFCEBCEFBEACDFA226040F82582A8
:10070000500274FFF582E824F8501ECCCBCAF9E4FD
:10071000CC24F85014CBCAF9E4CB24F8500BCAF916
:10072000E4CA24F8500379002224086010F8C3ECCE
:1007300013FCEB13FBEA13FAE913F9D8F122AA82AE
:10074000AB83A2F73392D16002D2F7F582ACF022EC
:00000001FF
