:1000000002000375816212012BE582600302006F1A
:10001000780079007A007B007C007D00EC4D601C4C
:1000200088828983E493A3A882A9838A828B83F040
:10003000A3AA82AB831CBCFFE31D80E07582007520
:1000400083007C007D00EC4D600AE4F0A31CBCFF43
:10005000F51D80F27582007583007C007D00EC4DFB
:10006000600AE4F0A31CBCFFF51D80F212007412BC
:10007000042E80FE750B002200000000000000002E
:1000900000000002019B436F6D6D616E643A202584
:1000A00073000D0A4A44592D343020746573740D61
:1000B0000A0041542B44564944323338350D0A0066
:1000C00041542B5645520D0A0041542B4241554490
:1000D0000D0A0041542B524649440D0A0041542B4D
:1000E000445649440D0A0041542B5246430D0A0020
:1000F00041542B504F57450D0A0041542B434C534C
:10010000530D0A004C583A2025302E34662C2052CC
:10011000593A2025302E34660A2C204D6F746F72A8
:100120002053746174653A2025640075A7007597A3
:10013000DE7597AD75FF8075EF0675A71075C12048
:1001400075A70075A90075A900E5A930E7FB75A999
:100150000375A903E5A930E7FB43A41143A6017584
:10016000E10175E20075E341759810758DE6858DA6
:100170008B53890F438920D28ED29975A71075C0F1
:10018000007509D8750ADC75D4FF75D5FF43F308EF
:10019000D2C2D2AF75A70075820022C0E0C002C0F3
:1001A00003C004C005C0D075D00075A710C2C7AA8F
:1001B0000BBA00028005BA0132800FD29775D2A027
:1001C00075D315750B01050C802CC297AA09AB0AD3
:1001D000E4FCFD74A0C39AFA74159BFBE49CFCE458
:1001E0009DFD8AD28BD3750B02800BC2978509D2F5
:1001F000850AD3750B00D0D0D005D004D003D0022F
:10020000D0E032AA82438E407592B87593FF8592F2
:10021000948593957591047B00C3EB9A500BE591FF
:1002200030E7FB53917F0B80F075910022AA82ABDF
:10023000837C007D00C3EC9AED9B502B7E00BE04B6
:1002400000501D7582FAC002C003C004C005C0067C
:10025000120203D006D005D004D003D0020E80DEF7
:100260000CBC00D10D80CE22AA82AB83ACF0FD7510
:10027000A72075930C75C8107594008A3B8B3C8C35
:100280003D8D3E90A20075F04A74041205F1AA82D9
:10029000AB83ACF0FD753B18E4F53CF53DF53E8ACB
:1002A000828B838CF0ED1205F1AA82AB83ACF0FD5A
:1002B000E4C39AFAE49BFB74019CE49D8A958B96B7
:1002C000D2C943944075A70022AA8275A72010C9FD
:1002D0000280FB8A9275A70022AA82AB83ACF08AC7
:1002E000828B838CF01205D5FD60188D82C002C010
:1002F00003C0041202C9D004D003D0020ABA00DF3E
:100300000B80DC2275A72010C80280FB53C83F85F4
:10031000928275A7002275A7207A007B0020C8264C
:1003200075A700758214C002C003120203D003D067
:100330000275A7200ABA00010BBAA8E1BB61DE75FD
:10034000A70075820A22C2C853C83F85928275A74A
:100350000022AA82AB83ACF0C002C003C004120327
:1003600016AD82D004D003D002BD0A0A8A828B83E4
:100370008CF0E40208B08A828B838CF0ED1208B016
:10038000A3AA82AB8380D175A720A2C875A700223B
:10039000AA82AB837C007D00C3EC9AED9B50477E24
:1003A00000BE04005039C002C003C004C005C0062E
:1003B000120387E433D006D005D004D003D0026006
:1003C00001227582FAC002C003C004C005C0061233
:1003D0000203D006D005D004D003D0020E80C20C98
:1003E000BC00B50D80B222AA82AB83ACF0C002C0C3
:1003F00003C004C002C003C0047496C0E07400C00F
:10040000E07480C0E012088FE58124FAF581C2A073
:1004100090000512022DD004D003D0028A828B8373
:100420008CF01202D990000A12022DD2A0227A007A
:100430007B007C00E4FDF51BF51CF51DF51EF51990
:10044000F51AF50C9001F4C002C003C004C00512F7
:10045000022D74A2C0E07400C0E07480C0E01208F5
:100460008F158115811581902580E4F5F0120268C1
:100470009000B275F0801203E79000C075F0801212
:1004800003E79000C975F0801203E79000D375F080
:10049000801203E79000DD75F0801203E79000E71B
:1004A00075F0801203E79000F075F0801203E7907A
:1004B00000FA75F0801203E7D005D004D003D00213
:1004C0007509D8750ADCC002C003C004C005120358
:1004D00087E433D005D004D003D002700302057442
:1004E00090003F75F040120352E4F515F516C3E590
:1004F000159405E516648094805018E515240DF8D0
:10050000E515243FF98706A6060515E4B515DF05B0
:100510001680DB751707E4F518C3E517940BE5188B
:1005200064809480501AE51724F92411F8E5172403
:100530003FF98706A6060517E4B517DD051880D92B
:1005400090000D75F040120656AA82AB83ACF0FD08
:1005500090001175F040C002C003C004C00512062F
:100560005685821B85831C85F01DF51ED005D004A1
:10057000D003D00220B70EE519451A70087519018D
:10058000E4F51A800E20B70BE519451A6005E4F56D
:1005900019F51AC002C003C004C005C019C01AC0B2
:1005A0001BC01CC01DC01EC002C003C004C0057417
:1005B00004C0E07401C0E07480C0E012088FE581DF
:1005C00024F3F581900064120390D005D004D00389
:1005D000D0020204C020F71430F6148883A88220C9
:1005E000F507E6A88375830022E280F7E49322E012
:1005F00022FB7A20E4FCFDFEFFE5822582F582E500
:100600008333F583E5F033F5F0EB33FB4017DAE99C
:100610008042E5822582F582E58333F583E5F03378
:10062000F5F0EB33FBEC33FCED33FDEE33FEEF3353
:10063000FFEC953BED953CEE953DEF953E4013EC80
:10064000953BFCED953CFDEE953DFEEF953EFF4361
:100650008201DABEEB22AA82AB83ACF07539007559
:100660003A00C2028A058B068C078D828E838FF03A
:100670001205D5F8B820028003B809070DBD00EABD
:100680000E80E78D028E038F04B82D0DD200740109
:100690002DFAE43EFB8F04800EC200B82B097401D2
:1006A0002DFAE43EFB8F0475350075360075370072
:1006B0007538008A058B068C078D828E838FF01229
:1006C00005D5F8F9B930004005E824C650128D82EE
:1006D0008E838FF01205D5F8B82E02800302078BA7
:1006E0008D828E838FF01205D5F9B92E05D20202C4
:1006F0000783C005C006C007C005C006C007C0010B
:10070000C035C036C037C03890000075F020744145
:100710001208C985823585833685F037F538E5813D
:1007200024FCF581D001D007D006D005E93395E04F
:10073000FDE924D0F582ED34FFF5831209C5AD82C1
:10074000AE83AFF0F9C005C006C007C005C006C043
:1007500007C0018535828536838537F0E538120973
:100760006C85823585833685F037F538E58124FC44
:10077000F581D007D006D005D007D006D0053002CD
:100780000215390DBD00010E0206B95300DF8D823E
:100790008E838FF0E81208B0B8456274012DFAE438
:1007A0003EFB8F048A828B838CF01205D5FDBD2D14
:1007B00009D2010ABA000D0B800AC201BD2B050A3D
:1007C000BA00010B753A008A828B838CF01205D532
:1007D000FDFEBE3000401D8D06EE24C64016E53AF3
:1007E00075F00AA4F53AED24D0253AF53A0ABA0094
:1007F000D60B80D3300106C3E4953AF53AE53925A6
:100800003AF53AE53A6055E53A30E728C035C03662
:10081000C037C03890CCCD75F0CC743D1208C98576
:10082000823585833685F037F538E58124FCF581FE
:10083000053A80CFC035C036C037C038900000754B
:10084000F02074411208C985823585833685F037DA
:10085000F538E58124FCF581153A80A730000F8535
:100860003535853636853737E538B2E7F53885359D
:10087000828536838537F0E5382202135E85823122
:1008800085833285F033851F3490087A020DB1C01C
:1008900008858108E50824FBF534E50824FBF88683
:1008A0003108863208863390087A120DB1D00822BA
:1008B00020F71030F6118883A88220F507F6A88368
:1008C00075830022F280F7F0221213F5BC000302B8
:1008D0001394EF60FA30D502B2D1E583B4FF03027E
:1008E00013AAE582B4FF030213AA258340072482DA
:1008F000400B02139424831450030213AAF582EAD6
:100900008DF0A4A8F0EA8EF0A428F8E435F0F9EB15
:100910008DF0A428E935F0F9E433CA8FF0A429F961
:10092000EA35F0FAEBF88EF0A429F9EA35F0FAE4AA
:1009300033FBEC8DF0A429F9EA35F0FAE43BFBE84F
:100940008FF0A42AFAEB35F0FBE433CCFD8EF0A453
:100950002AFAEB35F0FBE43CFCED8FF0A42BFBEC2A
:1009600035F0FC20E7031213C20213731213F5795A
:1009700000E583B58202800D5003121423E583C382
:10098000958212143DE5D0C465D020E117EA2DFA16
:10099000EB3EFBEC3FFC5009740112143DEC44802B
:1009A000FC021373C3EA9DFAEB9EFBEC9FFC500F15
:1009B000C3E499F9E49AFAE49BFBE49CFCB2D112FB
:1009C00013C2021373AC83AB827A007900748E0277
:1009D0001489AA8274E3C0E07409C0E0C023C02473
:1009E0008A8222052AE4B52A02052B22AA827430C3
:1009F0002AFA24C6500A74072AFA30030343022055
:100A00008A820209D2E582FAC4540FF582C002122A
:100A100009ECD002740F5AF5820209ECAA25AB2624
:100A2000AC27AD28AE29753020EE2EFEED23540103
:100A3000FF4206EA2AFAEB33FBEC33FCED33FDC34D
:100A4000EE952C4008EEC3952CFE430201D530D91B
:100A50008A258B268C278D288E2922785FE624D044
:100A600075F00AA4FA7860E624D02AFA785E860344
:100A7000BB2D04C3E49AFA752C01C3E464808AF0A8
:100A800063F08095F050297530038A0374F62530A1
:100A9000401C052CE530142453F8E5302453F98725
:100AA00004A604772E1BEBFA6004053080DE8B026F
:100AB000EA30E70D785486037855A6037854762EED
:100AC0000AE52E600AE52E04FB252CF52C80053066
:100AD0000E02052C78538603E4BB2D0104FB70063F
:100AE000200903300A02052C300703020BA230084C
:100AF00057EB600C75822DC0021209D2D002801C07
:100B000030090C75822BC0021209D2D002800D3040
:100B10000A0A758220C0021209D2D00278548604D3
:100B2000BC2E0C758230C0021209D2D002152DAC39
:100B30002D152DC3E52C9C4003020BE6758230C0B9
:100B4000021209D2D00280E7AC2D152DC3E52C9CF2
:100B5000500C758220C0021209D2D00280EA78536C
:100B60008604BC2D0C75822DC0021209D2D00280E1
:100B70001C30090C75822BC0021209D2D002800DE4
:100B8000300A0A758220C0021209D2D00278548637
:100B900004BC2E52758230C0021209D2D002152D2B
:100BA0008044EB600E75822DC0021209D2D002156E
:100BB0002D802030090E75822BC0021209D2D0027E
:100BC000152D800F300A0C758220C0021209D2D078
:100BD00002152D78548603BB2E0C758230C002128C
:100BE00009D2D002152D753001C210E5302453F81A
:100BF0008603BB4503020CA3BB2E348A03C3E46403
:100C0000808BF063F08095F0500F758230C0031236
:100C100009D2D0031B8B0280E48B02D210E52E7028
:100C200038200E03020CA375822E1209D280743074
:100C300010278A03EB30E71FC3E46480852EF0633E
:100C4000F08095F0500C758230C0031209D2D003A9
:100C5000152E0B8B0280DD8B0230100EC3E46480F6
:100C6000852EF063F08095F05021E5302453F8860E
:100C7000038B82C0021209D2D00230100EE530245C
:100C800053F88603BB2E028002152E152DC3E46493
:100C900080852EF063F08095F0400320100505302C
:100CA000020BEBC3E46480852EF063F08095F05076
:100CB0000A7582301209D2152E80E830070FAA2D4E
:100CC000152DEA60087582201209D280F122E52EE6
:100CD0007003300E0D7407252EFAE52DC39AF52DFD
:100CE0008006E52D24FAF52D75300078538602BA7A
:100CF0002B0F20090C78537620200A05753001054A
:100D00002D200719AA2DC3E464808AF063F0809532
:100D1000F0500A7582201209D2152D80E7C210E525
:100D2000302453F88602BA00028069BA451F3003A6
:100D3000027665C3E46480852EF063F08095F05000
:100D40000A7582301209D2152E80E8D210C3E53020
:100D50009402E433FA7014EA700EC3E46480852EC2
:100D6000F063F08095F04003301016E5302453F81E
:100D700086028A821209D2E53024FD5012152E8097
:100D80000E7402B53009300E0675822E1209D20596
:100D900030020D1F300719AA2DC3E464808AF06366
:100DA000F08095F0500A7582201209D2152D80E747
:100DB00022858223858324E4F52AF52BAA31AB32E0
:100DC000AC338A828B838CF01205D5FD74012AF531
:100DD00031E43BF5328C33EDFA7003021357BA2538
:100DE00002800302134FC207C208C209C20AC20B23
:100DF000C20CC20DC20EC204C205C206752C00751B
:100E00002D00752EFFAB31AC32AD338B828C838DD0
:100E1000F01205D5FAA3AB82AC838B318C328D33C3
:100E2000BA25078A821209D280928A06BE30004013
:100E30002E8A06EE24C6402774FFB52E13E52D75C5
:100E4000F00AA4FEEA24D02EF52D70BFD20880BB94
:100E5000E52E75F00AA4FEEA24D02EF52E80ACBA59
:100E60002E0A74FFB52EA4752E00809F8A06BE61DF
:100E700000400E8A06EE248540075302DFD203802D
:100E800002C203BA20028075BA2303020F0CBA2AE9
:100E900003020F11BA2B02805FBA2D028055BA42AD
:100EA00002805FBA4303020F56BA4403021091BA9C
:100EB00045030210ABBA46030210A7BA470302105B
:100EC000AFBA4903021091BA4C02803BBA4E0302FA
:100ED00010B3BA4F03021098BA500302102ABA5343
:100EE00003020F7ABA550302109DBA58030210A2EA
:100EF0000210DDD207020E0BD209020E0BD20A023B
:100F00000E0BD20C020E0BD20D020E0BD20E020EE5
:100F10000B74FFB52E20300C0BE53414F8883486A2
:100F20002D020E0BE53424FEF88834860608860769
:100F3000188E2D020E0B300C0BE53414F888348615
:100F40002E020E0BE53424FEF88834860608860748
:100F5000188E2E020E0B300C0AE53414F8883486F5
:100F600002800FE53424FEF88834860308860418CE
:100F70008B028A821209D20210E2E53424FDF8883D
:100F800034860308860408860518188B258C268D60
:100F9000278B828C838DF01215CCAB82AC838B2F88
:100FA00074FFB52E03852F2E20071DC3E52F952D29
:100FB0005016E52DC3952FF52DAB2D152DEB6008A3
:100FC0007582201209D280F18525828526838527A6
:100FD000F01205D5FBFA6029AB2E152EC3E4648010
:100FE0008BF063F08095F050188A821209D2AB25FD
:100FF000AC26AD270BBB00010C8B258C268D2780E2
:10100000C72007030210E2C3E52F952D400302100D
:10101000E2E52DC3952FF52DAB2D152DEB700302B9
:1010200010E27582201209D280EEE53424FDF888A2
:1010300034860308860408860518188B258C268DAF
:1010400027E527FB30E7047A438013EB5460600404
:101050007A50800AEB30E6047A4980027A588A8214
:10106000C0021209D275823A1209D2758230120971
:10107000D27582781209D2D002BA4902800BBA50D6
:10108000028006852682120A05852582120A0580BD
:1010900051D20B752C0A804A752C088045752C0A94
:1010A0008040752C10803BD2048037D2058033D22B
:1010B00006802FE53424FDF888348603088604086A
:1010C000860518188B258C268D278B828C838DF0B6
:1010D000E52A1208B0A3E52B1208B080058A821217
:1010E00009D2200406200503300670E53424FCF8FC
:1010F00088348603088604088605088606181818AA
:101100008B258C268D278E28E525E526E527E528E5
:101110008B828C838DF0EE1214AD74FFB52E0375A7
:101120002E06300627747F5528FB8B29E529EB2BEB
:10113000FB8B29E52730E70674014529F529E529C8
:1011400024684006749925294002D205300506120C
:101150000CCE020DBC120A5B020DBCE52C70030222
:101160000DBC7B58300C2BE53414F88834E6FC3386
:1011700095E0FDFEFF8C258D268E278F28200B5EA7
:10118000AC257D007E007F008C258D268E278F2844
:10119000804C300D1FE53424FCF888348604088622
:1011A000050886060886071818188C258D268E27B0
:1011B0008F28802AE53424FEF888348604088605C2
:1011C00018ED3395E0FEFF8C258D268E278F282085
:1011D0000B0CAC25AD267E007F008E278F28300EAD
:1011E00043E52545264527452860397408B52C0C6C
:1011F000758230C0031209D2D00380287410B52C38
:1012000023758230C0031209D2D00330030C7582DB
:1012100078C0031209D2D003800A758258C0031225
:1012200009D2D003300B25AC25AD26AE27E528FF2B
:1012300030E717C3E49CFCE49DFDE49EFEE49FFFC1
:101240008C258D268E278F288002C20B752F00D209
:101250000F8B00752900C000120A1CD000200F0D52
:10126000E529C4FCE6FD4CF61888038002A6290592
:101270002FB20FE52545264527452870D68803E57A
:101280002D7003752D0120081A200717E52F04FC87
:10129000C3952D500E758220C0031209D2D00315BC
:1012A0002D80E9300B0E75822DC0031209D2D003B8
:1012B000152D8024E52F602030090E75822BC00388
:1012C0001209D2D003152D800F300A0C758220C070
:1012D000031209D2D003152D20071EAC2D152DC3E6
:1012E000E52F9C50273008047C3080027C208C82C3
:1012F000C0031209D2D00380E2C3E52F952D500917
:10130000E52DC3952FF52D8003752D008B00AB2F98
:10131000152FEB6022B20F200F0A08E6C4540FFB12
:101320008B2980078603740F5BF529852982C0000D
:101330001209ECD00080D7200703020DBCAB2D159D
:101340002DEB7003020DBC7582201209D280EE8A4B
:10135000821209D2020DBC852A82852B8322AA82A1
:10136000BA0A0810990280FB75990D10990280FB4A
:101370008A9922B98003EA13B34010EA2401FAE4FF
:101380003BFBE43CFC50047C800582BC000EBB00AF
:101390000BBA0008E4F5F0F583F58222A2D1E582CC
:1013A000138CF092F78B838A8222E4F583F58275A1
:1013B000F080F4A2D11322E4F583F58275F0C074B5
:1013C0007F227804EC7011E58224F8500AF582E45B
:1013D000C9CACBFCD8EF22EC7820058220E713D5D0
:1013E000820122C3E933F9EA33FAEB33FBEC33FC35
:1013F000D8EA158222AA82AB83A2F73392D1600287
:10140000D2F7F582ACF0E58124F9F8E6FD08E6FEB6
:101410000886F008E6A2F73392D56002D2F7F5838A
:10142000AFF022E582C583F582A2D133A2D592D155
:101430001392D5ECCFFCEBCEFBEACDFA226040F85C
:101440002582500274FFF582E824F8501ECCCBCAE6
:10145000F9E4CC24F85014CBCAF9E4CB24F8500BAF
:10146000CAF9E4CA24F8500379002224086010F86D
:10147000C3EC13FCEB13FBEA13FAE913F9D8F122DE
:10148000FCABF0AA83A982749EF582C2D1EC30E74E
:1014900016D2D1E9F42401F9EAF43400FAEBF43479
:1014A00000FBECF43400FC1213C2021373C0E0F82A
:1014B0004582458345F07009F5F0FBFCFDFE021501
:1014C0007BE823A2F792E0F8A982AA83D2F7ABF0D7
:1014D0007C007E07C3749798404074FF2EFE740A08
:1014E00089F0A4F985F082740A8AF0A4FA85F08361
:1014F000740A8BF0A4FB740529F9EA3582FAEB35FE
:1015000083FB740035F0FCC3EC13FCEB13FBEA1314
:10151000FAE913F908EC70EF80BAE8C3947FF88B0E
:10152000838EF0E4FBFCFDFEFF08C3E933F9EA33E8
:10153000FAE58333F583EB3BD4FBEC3CD4FCED3D87
:10154000D4FDEE3ED4FEEF3FD4FF602D05F07405D0
:101550002BD4FBE43CD4FCE43DD4FDE43ED4FEE4D7
:101560003FD4FF758204C3EF13FFEE13FEED13FDAE
:10157000EC13FCEB13FBD582EDD8AF7853D0E02011
:10158000E704762B8002762D087906E7C4540F44D1
:1015900030F608B90603762E08E7540F4430F608F3
:1015A00019B902E7764508E5F020E704762B8004B8
:1015B000762DF4040875F00A844430F608E5F0440A
:1015C00030F608E4F690005375F04022AA82AB830F
:1015D000ACF07D007E008A828B838CF01205D5FFF3
:1015E000A3AA82AB83EF60070DBD00EA0E80E78DF2
:1015F000828E832200000000000000000000000036
:00000001FF
