:10000000020003758150120100E582600302006F57
:10001000780079007A007B007C007D00EC4D601C4C
:1000200088828983E493A3A882A9838A828B83F040
:10003000A3AA82AB831CBCFFE31D80E07582007520
:1000400083007C007D00EC4D600AE4F0A31CBCFF43
:10005000F51D80F27582007583007C007D00EC4DFB
:10006000600AE4F0A31CBCFFF51D80F21200FF1231
:10007000037F80FE436F6D6D616E643A20257300CF
:100080000D0A4A44592D343020746573740D0A00EA
:1000900041542B44564944323338350D0A004154FB
:1000A0002B5645520D0A0041542B424155440D0A2E
:1000B0000041542B524649440D0A0041542B4456EA
:1000C00049440D0A0041542B5246430D0A00415445
:1000D0002B504F57450D0A0041542B434C53530DA1
:1000E0000A0052583A2025640D0A004C583A20253F
:1000F000640D0A003C4E4F20464C4F41543E0022B6
:1001000075A7007597DE7597AD75FF8075EF06755D
:10011000A71075C12075A70075A90075A900E5A9EC
:1001200030E7FB75A90375A903E5A930E7FB43A4F4
:100130001143A60175E10175E20075E34175981060
:10014000758DE6858D8B53890F438920D28ED29988
:1001500075820022AA82438E407592B87593FF85FE
:1001600092948593957591047B00C3EB9A500BE5AF
:100170009130E7FB53917F0B80F075910022AA82AA
:10018000AB837C007D00C3EC9AED9B502B7E00BEC0
:100190000400501D7582FAC002C003C004C005C02F
:1001A00006120154D006D005D004D003D0020E8030
:1001B000DE0CBC00D10D80CE22AA82AB83ACF0FD58
:1001C00075A72075930C75C8107594008A128B134F
:1001D0008C148D1590A20075F04A74041204CBAAF9
:1001E00082AB83ACF0FD751218E4F513F514F51528
:1001F0008A828B838CF0ED1204CBAA82AB83ACF0A5
:10020000FDE4C39AFAE49BFB74019CE49D8A958B00
:1002100096D2C943944075A70022AA8275A72010E0
:10022000C90280FB8A9275A70022AA82AB83ACF038
:100230008A828B838CF01204AFFD60188D82C0021D
:10024000C003C00412021AD004D003D0020ABA00BC
:10025000DF0B80DC2275A72010C80280FB53C83F4B
:1002600085928275A7002275A7207A007B0020C89E
:100270002675A700758214C002C003120154D00372
:10028000D00275A7200ABA00010BBAA8E1BB61DE53
:1002900075A70075820A22C2C853C83F859282752D
:1002A000A70022AA82AB83ACF0C002C003C0041234
:1002B0000267AD82D004D003D002BD0A0A8A828BC5
:1002C000838CF0E402064A8A828B838CF0ED12065E
:1002D0004AA3AA82AB8380D175A720A2C875A700C4
:1002E00022AA82AB837C007D00C3EC9AED9B504731
:1002F0007E00BE04005039C002C003C004C005C067
:10030000061202D8E433D006D005D004D003D002C0
:100310006001227582FAC002C003C004C005C00695
:10032000120154D006D005D004D003D0020E80C2F2
:100330000CBC00B50D80B222AA82AB83ACF0C00227
:10034000C003C004C002C003C0047474C0E07400E1
:10035000C0E07480C0E0120629E58124FAF581C26C
:10036000A090000512017ED004D003D0028A828BB7
:10037000838CF012022A90000A12017ED2A02290F1
:1003800001F412017E7480C0E07400C0E07480C08B
:10039000E0120629158115811581902580E4F5F07C
:1003A0001201B990009075F08012033890009E758C
:1003B000F0801203389000A775F080120338900087
:1003C000B175F0801203389000BB75F080120338CD
:1003D0009000C575F0801203389000CE75F0801241
:1003E00003389000D875F0801203381202D8400309
:1003F0000204A690003775F0401202A37A017B0038
:100400007C017D00C3EC9405ED64809480501A8CCF
:1004100006EE142409F8EC2437F98706A6060CBC6E
:1004200000010D8C028D0380DB8C028D037C057D29
:1004300000C3EC9409ED6480948050168A06EE1493
:10044000240DF8EC2437F98706A6060CBC00E20D53
:1004500080DF90000975F040120530AA82AB8390CE
:10046000000D75F040C002C003120530AC82AD83B0
:10047000D003D002C004C005C002C00374E2C0E0D3
:100480007400C0E07480C0E0120629E58124FBF509
:100490008174EBC0E07400C0E07480C0E0120629F3
:1004A000E58124FBF5819000641202E10203EB2058
:1004B000F71430F6148883A88220F507E6A8837520
:1004C000830022E280F7E49322E022FB7A20E4FC1E
:1004D000FDFEFFE5822582F582E58333F583E5F0B5
:1004E00033F5F0EB33FB4017DAE98042E5822582F1
:1004F000F582E58333F583E5F033F5F0EB33FBEC80
:1005000033FCED33FDEE33FEEF33FFEC9512ED954A
:1005100013EE9514EF95154013EC9512FCED951321
:10052000FDEE9514FEEF9515FF438201DABEEB2236
:10053000AA82AB83ACF07D007E008A078B008C0121
:100540008F82888389F01204AFF5226035C374B9B5
:100550008522F063F08095F04008E522648094B035
:1005600050208F82888389F01204AFF522742DB554
:100570002202800E742BB5220280070FBF00C10833
:1005800080BE8F02880389048F82888389F01204D9
:10059000AFFFBF2D03D38001C39200BF2D028003A4
:1005A000BF2B050ABA00010B8A828B838CF01204E0
:1005B000AFFF604BC3EF648094B0404374B98FF0D9
:1005C00063F08095F040388D128E1390000AC002BF
:1005D000C003C004C007120663AD82AE83D007D04B
:1005E00004D003D002EF3395E0F8EF24D0FFE834D5
:1005F000FFF8EF2DFDE83EFE0ABA00AC0B80A930F3
:100600000009C3E49DFAE49EFB80048D028E038AF8
:10061000828B8322020CA085823085833185F03263
:10062000851133900614020709C008858108E50882
:1006300024FBF533E50824FBF8863008863108866C
:1006400032900614120709D0082220F71030F61154
:100650008883A88220F507F6A88375830022F2809C
:10066000F7F022E5828512F0A4C582C0F08513F070
:10067000A4D0F025F0C5838512F0A42583F583224C
:10068000AA827491C0E07406C0E0C022C0238A82AE
:10069000220529E4B52902052A22AA8274302AFA01
:1006A00024C6500A74072AFA3001034302208A82C2
:1006B000020680E582FAC4540FF582C00212069A3F
:1006C000D002740F5AF58202069AAA24AB25AC26F2
:1006D000AD27AE28752F20EE2EFEED235401FF42EC
:1006E00006EA2AFAEB33FBEC33FCED33FDC3EE955F
:1006F0002B4008EEC3952BFE430201D52FD98A2447
:100700008B258C268D278E2822858222858323E4C3
:10071000F529F52AAA30AB31AC328A828B838CF072
:100720001204AFFD74012AF530E43BF5318C32ED53
:10073000FA7003020C99BA25028003020C91C205DB
:10074000C206C207C208C209C20AC20BC20CC20258
:10075000C203C204752B00752C00752DFFAB30ACA5
:1007600031AD328B828C838DF01204AFFAA3AB8251
:10077000AC838B308C318D32BA25078A8212068089
:1007800080928A06BE3000402E8A06EE24C640279C
:1007900074FFB52D13E52C75F00AA4FEEA24D02EC3
:1007A000F52C70BFD20680BBE52D75F00AA4FEEAD9
:1007B00024D02EF52D80ACBA2E0A74FFB52DA47569
:1007C0002D00809F8A06BE6100400E8A06EE2485B9
:1007D00040075302DFD2018002C201BA20028075B5
:1007E000BA2303020864BA2A03020869BA2B0280FA
:1007F0005FBA2D028055BA4202805FBA43030208F5
:10080000AEBA44030209E9BA4503020A03BA460331
:100810000209FFBA4703020A07BA49030209E9BA03
:100820004C02803BBA4E03020A0BBA4F030209F096
:10083000BA5003020982BA53030208D2BA5503021E
:1008400009F5BA58030209FA020A35D2050207630C
:10085000D207020763D208020763D20A020763D2F3
:100860000B020763D20C02076374FFB52D20300A18
:100870000BE53314F88833862C020763E53324FE36
:10088000F888338606088607188E2C020763300A1C
:100890000BE53314F88833862D020763E53324FE15
:1008A000F888338606088607188E2D020763300AFB
:1008B0000AE53314F888338602800FE53324FEF806
:1008C00088338603088604188B028A821206800207
:1008D0000A3AE53324FDF88833860308860408863F
:1008E0000518188B248C258D268B828C838DF01215
:1008F0000CB5AB82AC838B2E74FFB52D03852E2DEA
:1009000020051DC3E52E952C5016E52CC3952EF51C
:100910002CAB2C152CEB600875822012068080F120
:100920008524828525838526F01204AFFBFA602991
:10093000AB2D152DC3E464808BF063F08095F050EF
:10094000188A82120680AB24AC25AD260BBB0001B1
:100950000C8B248C258D2680C7200503020A3AC300
:10096000E52E952C4003020A3AE52CC3952EF52C72
:10097000AB2C152CEB7003020A3A7582201206800C
:1009800080EEE53324FDF888338603088604088664
:100990000518188B248C258D26E526FB30E7047A74
:1009A000438013EB546060047A50800AEB30E60415
:1009B0007A4980027A588A82C00212068075823A89
:1009C000120680758230120680758278120680D0F9
:1009D00002BA4902800BBA500280068525821206AF
:1009E000B38524821206B38051D209752B0A804A3E
:1009F000752B088045752B0A8040752B10803BD2E3
:100A0000028037D2038033D204802FE53324FDF8EF
:100A10008833860308860408860518188B248C25DD
:100A20008D268B828C838DF0E52912064AA3E52A58
:100A300012064A80058A82120680200206200303DD
:100A400030045AE53324FCF888338603088604080A
:100A500086050886061818188B248C258D268E2767
:100A60007524F47525007526808524348525358503
:100A7000263674012534FEE43535FFAB368E248FDF
:100A8000258B268534828535838536F01204AFFBAD
:100A9000FA70030207148A8212068080CCE52B705C
:100AA000030207147B50300A2BE53314F88833E631
:100AB000FC3395E0FDFEFF8C248D258E268F2720AC
:100AC000095EAC247D007E007F008C248D258E265F
:100AD0008F27804C300B1FE53324FCF888338604C5
:100AE0000886050886060886071818188C248D25A0
:100AF0008E268F27802AE53324FEF8883386040863
:100B0000860518ED3395E0FEFF8C248D258E268F0B
:100B10002720090CAC24AD257E007F008E268F2770
:100B2000300C43E52445254526452760397408B532
:100B30002B0C758230C003120680D00380287410FD
:100B4000B52B23758230C003120680D00330010C10
:100B5000758278C003120680D003800A758258C05F
:100B600003120680D003300925AC24AD25AE26E55E
:100B700027FF30E717C3E49CFCE49DFDE49EFEE400
:100B80009FFF8C248D258E268F278002C209752E0B
:100B900000D20D8B00752800C0001206CAD00020BC
:100BA0000D0DE528C4FCE6FD4CF61888038002A66E
:100BB00028052EB20DE52445254526452770D68803
:100BC00003E52C7003752C0120061A200517E52E6D
:100BD00004FCC3952C500E758220C003120680D0F1
:100BE00003152C80E930090E75822DC00312068092
:100BF000D003152C8024E52E602030070E75822B43
:100C0000C003120680D003152C800F30080C7582AB
:100C100020C003120680D003152C20051EAC2C1515
:100C20002CC3E52E9C50273006047C3080027C20AB
:100C30008C82C003120680D00380E2C3E52E952C7F
:100C40005009E52CC3952EF52C8003752C008B00E4
:100C5000AB2E152EEB6022B20D200D0A08E6C4540F
:100C60000FFB8B2880078603740F5BF5288528828D
:100C7000C00012069AD00080D7200503020714ABEB
:100C80002C152CEB7003020714758220120680804D
:100C9000EE8A82120680020714852982852A832221
:100CA000AA82BA0A0810990280FB75990D10990260
:100CB00080FB8A9922AA82AB83ACF07D007E008AF9
:100CC000828B838CF01204AFFFA3AA82AB83EF6008
:100CD000070DBD00EA0E80E78D828E8322000000A2
:00000001FF
