:100000000200037581551200F1E582600302006F62
:10001000780079007A007B007C007D00EC4D601C4C
:1000200088828983E493A3A882A9838A828B83F040
:10003000A3AA82AB831CBCFFE31D80E07582007520
:1000400083007C007D00EC4D600AE4F0A31CBCFF43
:10005000F51D80F27582007583007C007D00EC4DFB
:10006000600AE4F0A31CBCFFF51D80F21200F01240
:10007000036A80FE436F6D6D616E643A20257300E4
:100080000D0A4A44592D343020746573740D0A00EA
:1000900041542B44564944303030310D0A0041540C
:1000A0002B5645520D0A0041542B424155440D0A2E
:1000B0000041542B524649440D0A0041542B4456EA
:1000C00049440D0A0041542B5246430D0A00415445
:1000D0002B504F57450D0A0041542B434C53530DA1
:1000E0000A002573003C4E4F20464C4F41543E00C1
:1000F0002275A7007597DE7597AD75FF8075EF06C1
:1001000075A71075C12075A70075A90075A900E530
:10011000A930E7FB75A90375A903E5A930E7FB43FF
:10012000A41143A60175E10175E20075E3417598DC
:1001300010758DE6858D8B53890F438920D28ED221
:100140009975820022AA82438E407592B87593FFFA
:100150008592948593957591047B00C3EB9A500B1F
:10016000E59130E7FB53917F0B80F075910022AA57
:1001700082AB837C007D00C3EC9AED9B502B7E000C
:10018000BE0400501D7582FAC002C003C004C00541
:10019000C006120145D006D005D004D003D0020E0F
:1001A00080DE0CBC00D10D80CE22AA82AB83ACF0E5
:1001B000FD75A72075930C75C8107594008A0E8B79
:1001C0000F8C108D1190A20075F04A74041204294E
:1001D000AA82AB83ACF0FD750E18E4F50FF510F5AF
:1001E000118A828B838CF0ED120429AA82AB83AC36
:1001F000F0FDE4C39AFAE49BFB74019CE49D8A95AC
:100200008B96D2C943944075A70022AA8275A72075
:1002100010C90280FB8A9275A70022AA82AB83AC28
:10022000F08A828B838CF012040DFD60188D82C0E1
:1002300002C003C00412020BD004D003D0020ABAD9
:1002400000DF0B80DC2275A72010C80280FB53C89A
:100250003F85928275A7002275A7207A007B002037
:10026000C82675A700758214C002C003120145D0CC
:1002700003D00275A7200ABA00010BBAA8E1BB613E
:10028000DE75A70075820A22C2C853C83F859282D4
:1002900075A70022AA82AB83ACF0C002C003C004E1
:1002A000120258AD82D004D003D002BD0A0A8A825D
:1002B0008B838CF0E40204C48A828B838CF0ED1271
:1002C00004C4A3AA82AB8380D175A720A2C875A756
:1002D0000022AA82AB837C007D00C3EC9AED9B5088
:1002E000477E00BE04005039C002C003C004C005F0
:1002F000C0061202C9E433D006D005D004D003D022
:10030000026001227582FAC002C003C004C005C0A9
:1003100006120145D006D005D004D003D0020E80CD
:10032000C20CBC00B50D80B222AA82AB83ACF0C077
:1003300002C003C004C002C003C0047474C0E074EF
:1003400000C0E07480C0E01204A3E58124FAF581C6
:10035000C2A090000512016FD004D003D0028A829F
:100360008B838CF012021BD2A0229001F412016F39
:100370007480C0E07400C0E07480C0E01204A31573
:100380008115811581902580E4F5F01201AA900075
:100390009075F08012032990009E75F08012032959
:1003A0009000A775F0801203299000B175F08012BB
:1003B00003299000BB75F0801203299000C575F0E9
:1003C000801203299000CE75F0801203299000D886
:1003D00075F0801203291202C9502A90003775F077
:1003E000401202947437C0E07400C0E07440C0E072
:1003F00074E2C0E07400C0E07480C0E01204A3E5C1
:100400008124FAF5819000641202D280C920F71489
:1004100030F6148883A88220F507E6A88375830048
:1004200022E280F7E49322E022FB7A20E4FCFDFE46
:10043000FFE5822582F582E58333F583E5F033F528
:10044000F0EB33FB4017DAE98042E5822582F58242
:10045000E58333F583E5F033F5F0EB33FBEC33FC68
:10046000ED33FDEE33FEEF33FFEC950EED950FEE21
:100470009510EF95114013EC950EFCED950FFDEEE8
:100480009510FEEF9511FF438201DABEEB22020ABE
:10049000FD85823085833185F032850D3390048E61
:1004A000020566C008858108E50824FBF533E508E8
:1004B00024FBF8863008863108863290048E1205B7
:1004C00066D0082220F71030F6118883A88220F524
:1004D00007F6A88375830022F280F7F022AA8274BF
:1004E000EEC0E07404C0E0C022C0238A8222052945
:1004F000E4B52902052A22AA8274302AFA24C650B9
:100500000A74072AFA3000034302208A820204DDBB
:10051000E582FAC4540FF582C0021204F7D00274C7
:100520000F5AF5820204F7AA24AB25AC26AD27AEFC
:1005300028752F20EE2EFEED235401FF4206EA2AF5
:10054000FAEB33FBEC33FCED33FDC3EE952B4008A7
:10055000EEC3952BFE430201D52FD98A248B258C1F
:10056000268D278E2822858222858323E4F529F58E
:100570002AAA30AB31AC328A828B838CF012040D04
:10058000FD74012AF530E43BF5318C32EDFA70034D
:10059000020AF6BA25028003020AEEC204C205C2AC
:1005A00006C207C208C209C20AC20BC201C202C205
:1005B00003752B00752C00752DFFAB30AC31AD32BF
:1005C0008B828C838DF012040DFAA3AB82AC838BEB
:1005D000308C318D32BA25078A821204DD80928AEE
:1005E00006BE3000402E8A06EE24C6402774FFB5B2
:1005F0002D13E52C75F00AA4FEEA24D02EF52C70FC
:10060000BFD20580BBE52D75F00AA4FEEA24D02EEA
:10061000F52D80ACBA2E0A74FFB52DA4752D00807F
:100620009F8A06BE6100400E8A06EE24854007536D
:1006300002DFD2008002C200BA20028075BA230312
:100640000206C1BA2A030206C6BA2B02805FBA2D7F
:10065000028055BA4202805FBA430302070BBA44D4
:1006600003020846BA4503020860BA460302085C62
:10067000BA4703020864BA4903020846BA4C02802A
:100680003BBA4E03020868BA4F0302084DBA500342
:100690000207DFBA530302072FBA5503020852BA02
:1006A0005803020857020892D2040205C0D206027B
:1006B00005C0D2070205C0D2090205C0D20A020550
:1006C000C0D20B0205C074FFB52D2030090BE533F5
:1006D00014F88833862C0205C0E53324FEF88833ED
:1006E0008606088607188E2C0205C030090BE533F4
:1006F00014F88833862D0205C0E53324FEF88833CC
:100700008606088607188E2D0205C030090AE533D3
:1007100014F888338602800FE53324FEF888338688
:1007200003088604188B028A821204DD020897E50A
:100730003324FDF8883386030886040886051818D4
:100740008B248C258D268B828C838DF0120B12AB23
:1007500082AC838B2E74FFB52D03852E2D20041DB6
:10076000C3E52E952C5016E52CC3952EF52CAB2CFD
:10077000152CEB60087582201204DD80F18524823F
:100780008525838526F012040DFBFA6029AB2D1513
:100790002DC3E464808BF063F08095F050188A825A
:1007A0001204DDAB24AC25AD260BBB00010C8B2461
:1007B0008C258D2680C7200403020897C3E52E955B
:1007C0002C4003020897E52CC3952EF52CAB2C1575
:1007D0002CEB70030208977582201204DD80EEE591
:1007E0003324FDF888338603088604088605181824
:1007F0008B248C258D26E526FB30E7047A43801375
:10080000EB546060047A50800AEB30E6047A498049
:10081000027A588A82C0021204DD75823A1204DD1F
:100820007582301204DD7582781204DDD002BA4977
:1008300002800BBA5002800685258212051085249D
:10084000821205108051D208752B0A804A752B0838
:100850008045752B0A8040752B10803BD201803774
:10086000D2028033D203802FE53324FDF88833860B
:100870000308860408860518188B248C258D268B82
:10088000828C838DF0E5291204C4A3E52A1204C4E6
:1008900080058A821204DD20010620020330035AFB
:1008A000E53324FCF88833860308860408860508A7
:1008B00086061818188B248C258D268E277524E51E
:1008C0007525007526808524348525358526367462
:1008D000012534FEE43535FFAB368E248F258B267B
:1008E0008534828535838536F012040DFBFA70035A
:1008F0000205718A821204DD80CCE52B70030205AB
:10090000717B5530092BE53314F88833E6FC3395B9
:10091000E0FDFEFF8C248D258E268F2720085EACFF
:10092000247D007E007F008C248D258E268F2780DD
:100930004C300A1FE53324FCF8883386040886050A
:100940000886060886071818188C248D258E268F91
:1009500027802AE53324FEF88833860408860518A4
:10096000ED3395E0FEFF8C248D258E268F27200801
:100970000CAC24AD257E007F008E268F27300B43E4
:10098000E52445254526452760397408B52B0C75A7
:100990008230C0031204DDD00380287410B52B23ED
:1009A000758230C0031204DDD00330000C758278EC
:1009B000C0031204DDD003800A758258C0031204FC
:1009C000DDD003300825AC24AD25AE26E527FF3069
:1009D000E717C3E49CFCE49DFDE49EFEE49FFF8CCE
:1009E000248D258E268F278002C208752E00D20CFA
:1009F0008B00752800C000120527D000200C0DE5E3
:100A000028C4FCE6FD4CF61888038002A628052EB3
:100A1000B20CE52445254526452770D68803E52CEC
:100A20007003752C0120051A200417E52E04FCC361
:100A3000952C500E758220C0031204DDD003152CB6
:100A400080E930080E75822DC0031204DDD0031535
:100A50002C8024E52E602030060E75822BC00312F8
:100A600004DDD003152C800F30070C758220C003E5
:100A70001204DDD003152C20041EAC2C152CC3E56C
:100A80002E9C50273005047C3080027C208C82C054
:100A9000031204DDD00380E2C3E52E952C5009E556
:100AA0002CC3952EF52C8003752C008B00AB2E15D6
:100AB0002EEB6022B20C200C0A08E6C4540FFB8B0C
:100AC0002880078603740F5BF528852882C00012F2
:100AD00004F7D00080D7200403020571AB2C152C3D
:100AE000EB70030205717582201204DD80EE8A82AC
:100AF0001204DD020571852982852A8322AA82BA21
:100B00000A0810990280FB75990D10990280FB8AE2
:100B10009922AA82AB83ACF07D007E008A828B830F
:100B20008CF012040DFFA3AA82AB83EF60070DBD0A
:100B300000EA0E80E78D828E832200000000000014
:00000001FF
