:100000000200037581541200FFE582600302006F55
:10001000780079007A007B007C007D00EC4D601C4C
:1000200088828983E493A3A882A9838A828B83F040
:10003000A3AA82AB831CBCFFE31D80E07582007520
:1000400083007C007D00EC4D600AE4F0A31CBCFF43
:10005000F51D80F27582007583007C007D00EC4DFB
:10006000600AE4F0A31CBCFFF51D80F21200FE1232
:1000700004D380FE436F6D6D616E643A202573007A
:100080000D0A4A44592D343020746573740D0A00EA
:1000900041542B44564944323338350D0A004154FB
:1000A0002B5645520D0A0041542B424155440D0A2E
:1000B0000041542B524649440D0A0041542B4456EA
:1000C00049440D0A0041542B5246430D0A00415445
:1000D0002B504F57450D0A0041542B434C53530DA1
:1000E0000A0025302A642025302A642025640A006D
:1000F0002573003C4E4F20464C4F41543E00227524
:10010000A7007597DE7597AD75FF8075EF0675A72B
:100110001075C12075A70075A90075A900E5A93063
:10012000E7FB75A90375A903E5A930E7FB43A41113
:1001300043A60175E10175E20075E34175981075FC
:100140008DE6858D8B53890F438920D28ED2997588
:1001500082002275A700C2EF75B28075BC2075B908
:100160001E75E80075DF3F75B300D2EF225389F0AA
:10017000438901C28C22AA82438E407592B875933E
:10018000FF8592948593957591047B00C3EB9A50FB
:100190000BE59130E7FB53917F0B80F075910022C6
:1001A000AA82AB837C007D00C3EC9AED9B502B7E32
:1001B00000BE0400501D7582FAC002C003C004C016
:1001C00005C006120176D006D005D004D003D002B7
:1001D0000E80DE0CBC00D10D80CE22AA828537F0C5
:1001E00005F07401800225E0D5F0FBFB75A720BA6D
:1001F0000002800ABA0102800FBA021E8014EBF4DA
:10020000FA52F1EB42D48012EBF4FA52F2EB42D5FF
:100210008008EBF4FA52F3EB42CC75A70022C2ED52
:10022000D2EC30EDFD85BD8285BE83228582BBC2C6
:10023000EDD2EC30EDFD85BD8285BE832212022C0D
:1002400012071EAA82AB83ACF0FDC002C003C0043B
:10025000C00590000075F0A0744012075EAA82AB42
:1002600083ACF0FDE58124FCF581E4C0E074FCC0C2
:10027000E0747FC0E07446C0E08A828B838CF0ED2E
:100280001208E5AA82AB83ACF0FDE58124FCF58180
:100290008A828B838CF0ED2212022CAA82AB83C35C
:1002A000EA94CCEB940C500990000075F080743FF8
:1002B000228A828B8312071EAA82AB83ACF0FDC018
:1002C00002C003C004C00590000075F0A074401285
:1002D000075EAA82AB83ACF0FDE58124FCF581E4E6
:1002E000C0E074FCC0E0747FC0E07446C0E08A8265
:1002F0008B838CF0ED1208E5AA82AB83ACF0FDE5B0
:100300008124FCF5818A828B838CF0ED22AA82AB5A
:1003100083ACF0FD75A72075930C75C8107594001B
:100320008A378B388C398D3A90A20075F04A740464
:100330001206B9AA82AB83ACF0FD753718E4F53824
:10034000F539F53A8A828B838CF0ED1206B9AA82D0
:10035000AB83ACF0FDE4C39AFAE49BFB74019CE42C
:100360009D8A958B96D2C943944075A70022AA8294
:1003700075A72010C90280FB8A9275A70022AA8265
:10038000AB83ACF08A828B838CF012069DFD6018E3
:100390008D82C002C003C00412036ED004D003D00B
:1003A000020ABA00DF0B80DC2275A72010C8028089
:1003B000FB53C83F85928275A7002275A7207A005B
:1003C0007B0020C82675A700758214C002C00312E6
:1003D0000176D003D00275A7200ABA00010BBAA893
:1003E000E1BB61DE75A70075820A22C2C853C83F0F
:1003F00085928275A70022AA82AB83ACF0C002C0AE
:1004000003C0041203BBAD82D004D003D002BD0AE6
:100410000A8A828B838CF0E40208378A828B838C71
:10042000F0ED120837A3AA82AB8380D175A720A272
:10043000C875A70022AA82AB837C007D00C3EC9A1A
:10044000ED9B50477E00BE04005039C002C003C07F
:1004500004C005C00612042CE433D006D005D00435
:10046000D003D0026001227582FAC002C003C0042A
:10047000C005C006120176D006D005D004D003D046
:10048000020E80C20CBC00B50D80B222AA82AB83E2
:10049000ACF0C002C003C004C002C003C004747446
:1004A000C0E07400C0E07480C0E0120816E581244A
:1004B000FAF581C2A09000051201A0D004D003D0AB
:1004C000028A828B838CF012037E90000A1201A0B4
:1004D000D2A0229001F41201A07480C0E07400C088
:1004E000E07480C0E01208161581158115819025F1
:1004F00080E4F5F012030D7537027582021201DBFC
:100500007537027582011201DB753703758202129D
:1005100001DB7537017582021201DB120153900075
:100520009075F08012048C90009E75F08012048CFF
:100530009000A775F08012048C9000B175F08012C5
:10054000048C9000BB75F08012048C9000C575F08F
:100550008012048C9000CE75F08012048C9000D82C
:1005600075F08012048C75820F12023D8582098518
:10057000830A85F00BF50C75820812023D85820D09
:1005800085830E85F00FF510C009C00AC00BC00CA2
:1005900090000075F07A744412075E8582098583A5
:1005A0000A85F00BF50CE58124FCF581C00DC00E29
:1005B000C00FC01090000075F07A744412075E8579
:1005C000820D85830E85F00FF510E58124FCF58101
:1005D000758210120298AC82AD83AAF0FBC004C0F1
:1005E00005C002C00390000075F07A744412075EE3
:1005F000AC82AD83AAF0FBE58124FCF5818C828D71
:10060000838AF0EB12072AAA82AB83850D82850EBE
:1006100083850FF0E510C002C00312072AAC82AD3B
:1006200083850982850A83850BF0E50CC004C0052B
:1006300012072AAE82AF837404C0E0E4C0E0C006B3
:10064000C0077404C0E0E4C0E074E2C0E07400C01D
:10065000E07480C0E0743BC0E07400C0E07440C04F
:10066000E012089FE58124F0F581743BC0E074003E
:10067000C0E07440C0E074F0C0E07400C0E074807A
:10068000C0E0120816E58124FAF58190003B75F070
:100690004012037E90006412043502056620F714B0
:1006A00030F6148883A88220F507E6A883758300B6
:1006B00022E280F7E49322E022FB7A20E4FCFDFEB4
:1006C000FFE5822582F582E58333F583E5F033F596
:1006D000F0EB33FB4017DAE98042E5822582F582B0
:1006E000E58333F583E5F033F5F0EB33FBEC33FCD6
:1006F000ED33FDEE33FEEF33FFEC9537ED9538EE3D
:100700009539EF953A4013EC9537FCED9538FDEEB1
:100710009539FEEF953AFF438201DABEEB22E4AC55
:1007200083AB82FAF9748E020A0D120A17700AE579
:1007300082458345F0700122E430D112F4700BE55C
:10074000F0F47006E58330E7012290800022700A01
:10075000E5F07006E58320E70122907FFF22120A70
:10076000F4BC0003020A93EF60FA30D502B2D1E57F
:1007700083B4FF03020AA9E582B4FF03020AA92594
:100780008340072482400B020A93248314500302FF
:100790000AA9F582EA8DF0A4A8F0EA8EF0A428F860
:1007A000E435F0F9EB8DF0A428E935F0F9E433CA2B
:1007B0008FF0A429F9EA35F0FAEBF88EF0A429F9C4
:1007C000EA35F0FAE433FBEC8DF0A429F9EA35F0D0
:1007D000FAE43BFBE88FF0A42AFAEB35F0FBE433B4
:1007E000CCFD8EF0A42AFAEB35F0FBE43CFCED8F57
:1007F000F0A42BFBEC35F0FC20E703120AC1020A3F
:100800007202114285823085833185F032851D3335
:10081000900801020BABC008858108E50824FBF5B0
:1008200033E50824FBF886300886310886329008C4
:1008300001120BABD0082220F71030F6118883A8E4
:100840008220F507F6A88375830022F280F7F02254
:10085000AA82AB16AC17AD188B828C838DF0EA128E
:1008600008370516E4B5160205172285821685831A
:100870001785F018851930851A31851B32851C3390
:10088000900850120BABAA82AB83AC16AD17AE1812
:100890008C828D838EF0E41208378A828B8322C08B
:1008A00008858108E50824F8F533E50824FBF88677
:1008B00016088617088618E50824F8F88630088692
:1008C00031088632900850120BABAA82AB83AC166B
:1008D000AD17AE188C828D838EF0E41208378A82B1
:1008E0008B83D00822120AF430D502B2D1BF00099E
:1008F000BC0003020AB6020AA9BC0003020A93E57F
:1009000083B4FF0BE582B4FF03020AB6020A93E543
:1009100082B4FF03020AA9C395835007247F400BCA
:10092000020A932480145003020AA9C0E0E4CCCB4D
:10093000CAF98D378E388F39EF54F0C4F53A758384
:1009400006853AF0EB84F582E9C4F9EAC4FAEBC40F
:10095000FBEC540FC47803D6FC18EBD6FB18EAD690
:10096000FA8582F0EDA4A8F0FD8582F0EEA428FEC1
:10097000E435F0F88582F0EFA428FFE435F0F8E9DB
:100980009DF9EA9EFAEB9FFBEC98FCAD37AE38AFD1
:100990003930E7101582E92DF9EA3EFAEB3FFBE426
:1009A0003CFC80EDC082D58398C3E933F9EA33FA81
:1009B000EB33FBEC33FCC3E99DEA9EEB9FEC940028
:1009C000B3E413F9D002D0E0C44AFAD003D0E0C4B3
:1009D0004BFBD004D0E0F5F0540FC44CFCD0821592
:1009E0008230F40FD3EC13FCEB13FBEA13FAE91398
:1009F000F90582E930E70A74012AFAE43BFBE43C9A
:100A0000FC020A8AFCABF0AA83A982749EC2D1F5CB
:100A100082120AC1020A72121157C3749E95824053
:100A200039790012116930D126E9F42401F582EAFE
:100A3000F43400F583EBF43400F5F0ECF43400709A
:100A40000AE582458345F0700122E430E70F22EC8D
:100A500020E71489828A838BF02230D10AE4F58260
:100A6000F583F5F074802274FFF582F583F5F07458
:100A70007F22B98003EA13B34010EA2401FAE43B71
:100A8000FBE43CFC50047C800582BC000EBB000BE8
:100A9000BA0008E4F5F0F583F58222A2D1E58213CD
:100AA0008CF092F78B838A8222E4F583F58275F0CD
:100AB00080F4A2D11322E4F583F58275F0C0747F2F
:100AC000227804EC7011E58224F8500AF582E4C91A
:100AD000CACBFCD8EF22EC7820058220E713D58220
:100AE0000122C3E933F9EA33FAEB33FBEC33FCD8E8
:100AF000EA158222AA82AB83A2F73392D16002D296
:100B0000F7F582ACF0E58124F9F8E6FD08E6FE0889
:100B100086F008E6A2F73392D56002D2F7F583AFEC
:100B2000F022AA827433C0E0740BC0E0C022C0235C
:100B30008A82220529E4B52902052A22AA82743074
:100B40002AFA24C6500A74072AFA30000343022006
:100B50008A82020B22E582FAC4540FF582C0021287
:100B60000B3CD002740F5AF582020B3CAA24AB2531
:100B7000AC26AD27AE28752F20EE2EFEED235401B6
:100B8000FF4206EA2AFAEB33FBEC33FCED33FDC3FC
:100B9000EE952B4008EEC3952BFE430201D52FD9CD
:100BA0008A248B258C268D278E2822858222858378
:100BB00023E4F529F52AAA30AB31AC328A828B8343
:100BC0008CF012069DFD74012AF530E43BF5318C62
:100BD00032EDFA700302113BBA2502800302113391
:100BE000C204C205C206C207C208C209C20AC20BB9
:100BF000C201C202C203752B00752C00752DFFAB1C
:100C000030AC31AD328B828C838DF012069DFAA30D
:100C1000AB82AC838B308C318D32BA25078A82123D
:100C20000B2280928A06BE3000402E8A06EE24C631
:100C3000402774FFB52D13E52C75F00AA4FEEA24B5
:100C4000D02EF52C70BFD20580BBE52D75F00AA41F
:100C5000FEEA24D02EF52D80ACBA2E0A74FFB52DF5
:100C6000A4752D00809F8A06BE6100400E8A06EEA4
:100C7000248540075302DFD2008002C200BA20025E
:100C80008075BA2303020D06BA2A03020D0BBA2B94
:100C900002805FBA2D028055BA4202805FBA4303D8
:100CA000020D50BA4403020E8BBA4503020EA5BAD8
:100CB0004603020EA1BA4703020EA9BA4903020E67
:100CC0008BBA4C02803BBA4E03020EADBA4F030200
:100CD0000E92BA5003020E24BA5303020D74BA5591
:100CE00003020E97BA5803020E9C020ED7D20402DA
:100CF0000C05D206020C05D207020C05D209020C23
:100D000005D20A020C05D20B020C0574FFB52D208A
:100D100030090BE53314F88833862C020C05E533D3
:100D200024FEF888338606088607188E2C020C05E8
:100D300030090BE53314F88833862D020C05E533B2
:100D400024FEF888338606088607188E2D020C05C7
:100D500030090AE53314F888338602800FE533241E
:100D6000FEF888338603088604188B028A82120BE9
:100D700022020EDCE53324FDF8883386030886045E
:100D800008860518188B248C258D268B828C838DE4
:100D9000F01211ACAB82AC838B2E74FFB52D0385A2
:100DA0002E2D20041DC3E52E952C5016E52CC39541
:100DB0002EF52CAB2C152CEB6008758220120B2223
:100DC00080F18524828525838526F012069DFBFA15
:100DD0006029AB2D152DC3E464808BF063F0809502
:100DE000F050188A82120B22AB24AC25AD260BBB27
:100DF00000010C8B248C258D2680C7200403020E55
:100E0000DCC3E52E952C4003020EDCE52CC3952EA9
:100E1000F52CAB2C152CEB7003020EDC7582201226
:100E20000B2280EEE53324FDF88833860308860420
:100E300008860518188B248C258D26E526FB30E7BF
:100E4000047A438013EB546060047A50800AEB30DC
:100E5000E6047A4980027A588A82C002120B22750F
:100E6000823A120B22758230120B22758278120B95
:100E700022D002BA4902800BBA5002800685258230
:100E8000120B55852482120B558051D208752B0AFE
:100E9000804A752B088045752B0A8040752B108081
:100EA0003BD2018037D2028033D203802FE5332436
:100EB000FDF88833860308860408860518188B24F5
:100EC0008C258D268B828C838DF0E529120837A323
:100ED000E52A12083780058A82120B22200106209B
:100EE000020330035AE53324FCF88833860308866E
:100EF000040886050886061818188B248C258D266C
:100F00008E277524F3752500752680852434852564
:100F10003585263674012534FEE43535FFAB368E33
:100F2000248F258B268534828535838536F01206FD
:100F30009DFBFA7003020BB68A82120B2280CCE56D
:100F40002B7003020BB67B5430092BE53314F88861
:100F500033E6FC3395E0FDFEFF8C248D258E268F35
:100F60002720085EAC247D007E007F008C248D2528
:100F70008E268F27804C300A1FE53324FCF88833F7
:100F800086040886050886060886071818188C2423
:100F90008D258E268F27802AE53324FEF888338618
:100FA0000408860518ED3395E0FEFF8C248D258E10
:100FB000268F2720080CAC24AD257E007F008E26CE
:100FC0008F27300B43E52445254526452760397496
:100FD00008B52B0C758230C003120B22D003802879
:100FE0007410B52B23758230C003120B22D003304E
:100FF000000C758278C003120B22D003800A758220
:1010000058C003120B22D003300825AC24AD25AE06
:1010100026E527FF30E717C3E49CFCE49DFDE49E32
:10102000FEE49FFF8C248D258E268F278002C20828
:10103000752E00D20C8B00752800C000120B6CD0EE
:1010400000200C0DE528C4FCE6FD4CF61888038052
:1010500002A628052EB20CE5244525452645277015
:10106000D68803E52C7003752C0120051A2004177F
:10107000E52E04FCC3952C500E758220C003120B84
:1010800022D003152C80E930080E75822DC0031282
:101090000B22D003152C8024E52E602030060E751F
:1010A000822BC003120B22D003152C800F30070CAB
:1010B000758220C003120B22D003152C20041EAC15
:1010C0002C152CC3E52E9C50273005047C30800263
:1010D0007C208C82C003120B22D00380E2C3E52E59
:1010E000952C5009E52CC3952EF52C8003752C000A
:1010F0008B00AB2E152EEB6022B20C200C0A08E6FA
:10110000C4540FFB8B2880078603740F5BF528857A
:101110002882C000120B3CD00080D7200403020BB1
:10112000B6AB2C152CEB7003020BB6758220120B9C
:101130002280EE8A82120B22020BB6852982852A32
:101140008322AA82BA0A0810990280FB75990D10B1
:10115000990280FB8A9922AA82AB83A2F73392D1AB
:101160006002D2F7F582ACF0226040F8258250028E
:1011700074FFF582E824F8501ECCCBCAF9E4CC24E5
:10118000F85014CBCAF9E4CB24F8500BCAF9E4CADE
:1011900024F8500379002224086010F8C3EC13FCF3
:1011A000EB13FBEA13FAE913F9D8F122AA82AB8315
:1011B000ACF07D007E008A828B838CF012069DFF4E
:1011C000A3AA82AB83EF60070DBD00EA0E80E78D16
:1011D000828E83220000000000000000000000005A
:00000001FF
